{
  "address": "0xb857435D138c28d195420F8452F71E9D32aB063F",
  "abi": [
    {
      "inputs": [
        {
          "internalType": "string",
          "name": "name_",
          "type": "string"
        },
        {
          "internalType": "string",
          "name": "symbol_",
          "type": "string"
        },
        {
          "internalType": "string",
          "name": "baseURI_",
          "type": "string"
        }
      ],
      "stateMutability": "nonpayable",
      "type": "constructor"
    },
    {
      "anonymous": false,
      "inputs": [
        {
          "indexed": true,
          "internalType": "address",
          "name": "owner",
          "type": "address"
        },
        {
          "indexed": true,
          "internalType": "address",
          "name": "approved",
          "type": "address"
        },
        {
          "indexed": true,
          "internalType": "uint256",
          "name": "tokenId",
          "type": "uint256"
        }
      ],
      "name": "Approval",
      "type": "event"
    },
    {
      "anonymous": false,
      "inputs": [
        {
          "indexed": true,
          "internalType": "address",
          "name": "owner",
          "type": "address"
        },
        {
          "indexed": true,
          "internalType": "address",
          "name": "operator",
          "type": "address"
        },
        {
          "indexed": false,
          "internalType": "bool",
          "name": "approved",
          "type": "bool"
        }
      ],
      "name": "ApprovalForAll",
      "type": "event"
    },
    {
      "anonymous": false,
      "inputs": [
        {
          "indexed": false,
          "internalType": "uint256",
          "name": "_fromTokenId",
          "type": "uint256"
        },
        {
          "indexed": false,
          "internalType": "uint256",
          "name": "_toTokenId",
          "type": "uint256"
        }
      ],
      "name": "BatchMetadataUpdate",
      "type": "event"
    },
    {
      "anonymous": false,
      "inputs": [
        {
          "indexed": false,
          "internalType": "uint256",
          "name": "_tokenId",
          "type": "uint256"
        }
      ],
      "name": "MetadataUpdate",
      "type": "event"
    },
    {
      "anonymous": false,
      "inputs": [
        {
          "indexed": true,
          "internalType": "bytes32",
          "name": "role",
          "type": "bytes32"
        },
        {
          "indexed": true,
          "internalType": "bytes32",
          "name": "previousAdminRole",
          "type": "bytes32"
        },
        {
          "indexed": true,
          "internalType": "bytes32",
          "name": "newAdminRole",
          "type": "bytes32"
        }
      ],
      "name": "RoleAdminChanged",
      "type": "event"
    },
    {
      "anonymous": false,
      "inputs": [
        {
          "indexed": true,
          "internalType": "bytes32",
          "name": "role",
          "type": "bytes32"
        },
        {
          "indexed": true,
          "internalType": "address",
          "name": "account",
          "type": "address"
        },
        {
          "indexed": true,
          "internalType": "address",
          "name": "sender",
          "type": "address"
        }
      ],
      "name": "RoleGranted",
      "type": "event"
    },
    {
      "anonymous": false,
      "inputs": [
        {
          "indexed": true,
          "internalType": "bytes32",
          "name": "role",
          "type": "bytes32"
        },
        {
          "indexed": true,
          "internalType": "address",
          "name": "account",
          "type": "address"
        },
        {
          "indexed": true,
          "internalType": "address",
          "name": "sender",
          "type": "address"
        }
      ],
      "name": "RoleRevoked",
      "type": "event"
    },
    {
      "anonymous": false,
      "inputs": [
        {
          "indexed": true,
          "internalType": "string",
          "name": "newBaseUri",
          "type": "string"
        }
      ],
      "name": "SetBaseUri",
      "type": "event"
    },
    {
      "anonymous": false,
      "inputs": [
        {
          "indexed": true,
          "internalType": "address",
          "name": "from",
          "type": "address"
        },
        {
          "indexed": true,
          "internalType": "address",
          "name": "to",
          "type": "address"
        },
        {
          "indexed": true,
          "internalType": "uint256",
          "name": "tokenId",
          "type": "uint256"
        }
      ],
      "name": "Transfer",
      "type": "event"
    },
    {
      "inputs": [],
      "name": "ADMIN_ROLE",
      "outputs": [
        {
          "internalType": "bytes32",
          "name": "",
          "type": "bytes32"
        }
      ],
      "stateMutability": "view",
      "type": "function"
    },
    {
      "inputs": [],
      "name": "BASE_URI",
      "outputs": [
        {
          "internalType": "string",
          "name": "",
          "type": "string"
        }
      ],
      "stateMutability": "view",
      "type": "function"
    },
    {
      "inputs": [],
      "name": "DEFAULT_ADMIN_ROLE",
      "outputs": [
        {
          "internalType": "bytes32",
          "name": "",
          "type": "bytes32"
        }
      ],
      "stateMutability": "view",
      "type": "function"
    },
    {
      "inputs": [
        {
          "internalType": "address",
          "name": "to",
          "type": "address"
        },
        {
          "internalType": "uint256",
          "name": "tokenId",
          "type": "uint256"
        }
      ],
      "name": "approve",
      "outputs": [],
      "stateMutability": "nonpayable",
      "type": "function"
    },
    {
      "inputs": [
        {
          "internalType": "address",
          "name": "owner",
          "type": "address"
        }
      ],
      "name": "balanceOf",
      "outputs": [
        {
          "internalType": "uint256",
          "name": "",
          "type": "uint256"
        }
      ],
      "stateMutability": "view",
      "type": "function"
    },
    {
      "inputs": [
        {
          "internalType": "uint256",
          "name": "tokenId_",
          "type": "uint256"
        }
      ],
      "name": "burn",
      "outputs": [],
      "stateMutability": "nonpayable",
      "type": "function"
    },
    {
      "inputs": [
        {
          "internalType": "string",
          "name": "baseUri_",
          "type": "string"
        }
      ],
      "name": "changeBaseUri",
      "outputs": [],
      "stateMutability": "nonpayable",
      "type": "function"
    },
    {
      "inputs": [],
      "name": "counter",
      "outputs": [
        {
          "internalType": "uint256",
          "name": "",
          "type": "uint256"
        }
      ],
      "stateMutability": "view",
      "type": "function"
    },
    {
      "inputs": [
        {
          "internalType": "uint256",
          "name": "offset",
          "type": "uint256"
        },
        {
          "internalType": "uint256",
          "name": "limit",
          "type": "uint256"
        }
      ],
      "name": "getAllURIsInfo",
      "outputs": [
        {
          "components": [
            {
              "internalType": "uint256",
              "name": "tokenId",
              "type": "uint256"
            },
            {
              "internalType": "address",
              "name": "owner",
              "type": "address"
            },
            {
              "internalType": "string",
              "name": "tokenUri",
              "type": "string"
            }
          ],
          "internalType": "struct NFT.Info[]",
          "name": "",
          "type": "tuple[]"
        }
      ],
      "stateMutability": "view",
      "type": "function"
    },
    {
      "inputs": [
        {
          "internalType": "uint256",
          "name": "tokenId",
          "type": "uint256"
        }
      ],
      "name": "getApproved",
      "outputs": [
        {
          "internalType": "address",
          "name": "",
          "type": "address"
        }
      ],
      "stateMutability": "view",
      "type": "function"
    },
    {
      "inputs": [],
      "name": "getHoldersCount",
      "outputs": [
        {
          "internalType": "uint256",
          "name": "",
          "type": "uint256"
        }
      ],
      "stateMutability": "view",
      "type": "function"
    },
    {
      "inputs": [
        {
          "internalType": "uint256",
          "name": "offset",
          "type": "uint256"
        },
        {
          "internalType": "uint256",
          "name": "limit",
          "type": "uint256"
        }
      ],
      "name": "getHoldersSlice",
      "outputs": [
        {
          "internalType": "address[]",
          "name": "",
          "type": "address[]"
        }
      ],
      "stateMutability": "view",
      "type": "function"
    },
    {
      "inputs": [
        {
          "internalType": "address",
          "name": "holder",
          "type": "address"
        },
        {
          "internalType": "uint256",
          "name": "offset",
          "type": "uint256"
        },
        {
          "internalType": "uint256",
          "name": "limit",
          "type": "uint256"
        }
      ],
      "name": "getIdsSliceByHolder",
      "outputs": [
        {
          "internalType": "uint256[]",
          "name": "",
          "type": "uint256[]"
        }
      ],
      "stateMutability": "view",
      "type": "function"
    },
    {
      "inputs": [
        {
          "internalType": "bytes32",
          "name": "role",
          "type": "bytes32"
        }
      ],
      "name": "getRoleAdmin",
      "outputs": [
        {
          "internalType": "bytes32",
          "name": "",
          "type": "bytes32"
        }
      ],
      "stateMutability": "view",
      "type": "function"
    },
    {
      "inputs": [
        {
          "internalType": "uint256[]",
          "name": "ids",
          "type": "uint256[]"
        }
      ],
      "name": "getURIs",
      "outputs": [
        {
          "internalType": "string[]",
          "name": "",
          "type": "string[]"
        }
      ],
      "stateMutability": "view",
      "type": "function"
    },
    {
      "inputs": [
        {
          "internalType": "bytes32",
          "name": "role",
          "type": "bytes32"
        },
        {
          "internalType": "address",
          "name": "account",
          "type": "address"
        }
      ],
      "name": "grantRole",
      "outputs": [],
      "stateMutability": "nonpayable",
      "type": "function"
    },
    {
      "inputs": [
        {
          "internalType": "bytes32",
          "name": "role",
          "type": "bytes32"
        },
        {
          "internalType": "address",
          "name": "account",
          "type": "address"
        }
      ],
      "name": "hasRole",
      "outputs": [
        {
          "internalType": "bool",
          "name": "",
          "type": "bool"
        }
      ],
      "stateMutability": "view",
      "type": "function"
    },
    {
      "inputs": [
        {
          "internalType": "address",
          "name": "owner",
          "type": "address"
        },
        {
          "internalType": "address",
          "name": "operator",
          "type": "address"
        }
      ],
      "name": "isApprovedForAll",
      "outputs": [
        {
          "internalType": "bool",
          "name": "",
          "type": "bool"
        }
      ],
      "stateMutability": "view",
      "type": "function"
    },
    {
      "inputs": [
        {
          "internalType": "address",
          "name": "holder",
          "type": "address"
        }
      ],
      "name": "isHolder",
      "outputs": [
        {
          "internalType": "bool",
          "name": "",
          "type": "bool"
        }
      ],
      "stateMutability": "view",
      "type": "function"
    },
    {
      "inputs": [
        {
          "internalType": "address",
          "name": "to_",
          "type": "address"
        },
        {
          "internalType": "string",
          "name": "tokenURI_",
          "type": "string"
        }
      ],
      "name": "mint",
      "outputs": [],
      "stateMutability": "nonpayable",
      "type": "function"
    },
    {
      "inputs": [],
      "name": "name",
      "outputs": [
        {
          "internalType": "string",
          "name": "",
          "type": "string"
        }
      ],
      "stateMutability": "view",
      "type": "function"
    },
    {
      "inputs": [
        {
          "internalType": "uint256",
          "name": "tokenId",
          "type": "uint256"
        }
      ],
      "name": "ownerOf",
      "outputs": [
        {
          "internalType": "address",
          "name": "",
          "type": "address"
        }
      ],
      "stateMutability": "view",
      "type": "function"
    },
    {
      "inputs": [
        {
          "internalType": "bytes32",
          "name": "role",
          "type": "bytes32"
        },
        {
          "internalType": "address",
          "name": "account",
          "type": "address"
        }
      ],
      "name": "renounceRole",
      "outputs": [],
      "stateMutability": "nonpayable",
      "type": "function"
    },
    {
      "inputs": [
        {
          "internalType": "bytes32",
          "name": "role",
          "type": "bytes32"
        },
        {
          "internalType": "address",
          "name": "account",
          "type": "address"
        }
      ],
      "name": "revokeRole",
      "outputs": [],
      "stateMutability": "nonpayable",
      "type": "function"
    },
    {
      "inputs": [
        {
          "internalType": "address",
          "name": "from",
          "type": "address"
        },
        {
          "internalType": "address",
          "name": "to",
          "type": "address"
        },
        {
          "internalType": "uint256",
          "name": "tokenId",
          "type": "uint256"
        }
      ],
      "name": "safeTransferFrom",
      "outputs": [],
      "stateMutability": "nonpayable",
      "type": "function"
    },
    {
      "inputs": [
        {
          "internalType": "address",
          "name": "from",
          "type": "address"
        },
        {
          "internalType": "address",
          "name": "to",
          "type": "address"
        },
        {
          "internalType": "uint256",
          "name": "tokenId",
          "type": "uint256"
        },
        {
          "internalType": "bytes",
          "name": "data",
          "type": "bytes"
        }
      ],
      "name": "safeTransferFrom",
      "outputs": [],
      "stateMutability": "nonpayable",
      "type": "function"
    },
    {
      "inputs": [
        {
          "internalType": "address",
          "name": "operator",
          "type": "address"
        },
        {
          "internalType": "bool",
          "name": "approved",
          "type": "bool"
        }
      ],
      "name": "setApprovalForAll",
      "outputs": [],
      "stateMutability": "nonpayable",
      "type": "function"
    },
    {
      "inputs": [
        {
          "internalType": "bytes4",
          "name": "interfaceId",
          "type": "bytes4"
        }
      ],
      "name": "supportsInterface",
      "outputs": [
        {
          "internalType": "bool",
          "name": "",
          "type": "bool"
        }
      ],
      "stateMutability": "view",
      "type": "function"
    },
    {
      "inputs": [],
      "name": "symbol",
      "outputs": [
        {
          "internalType": "string",
          "name": "",
          "type": "string"
        }
      ],
      "stateMutability": "view",
      "type": "function"
    },
    {
      "inputs": [
        {
          "internalType": "uint256",
          "name": "tokenId",
          "type": "uint256"
        }
      ],
      "name": "tokenURI",
      "outputs": [
        {
          "internalType": "string",
          "name": "",
          "type": "string"
        }
      ],
      "stateMutability": "view",
      "type": "function"
    },
    {
      "inputs": [
        {
          "internalType": "address",
          "name": "from",
          "type": "address"
        },
        {
          "internalType": "address",
          "name": "to",
          "type": "address"
        },
        {
          "internalType": "uint256",
          "name": "tokenId",
          "type": "uint256"
        }
      ],
      "name": "transferFrom",
      "outputs": [],
      "stateMutability": "nonpayable",
      "type": "function"
    }
  ],
  "transactionHash": "0xe9d3d02b291f9f0f3e89a3f6901b2074ea3451e788700ef5077d06227e784a31",
  "args": [
    "Крипто$лоня₽ы Collection",
    "KC",
    "https://ipfs.io/ipfs/"
  ],
  "numDeployments": 5,
  "solcInputHash": "6d6bcbd18d6ca97cfdfc57f37807047f",
  "bytecode": "0x60806040523480156200001157600080fd5b5060405162002f6b38038062002f6b8339810160408190526200003491620002fc565b828260006200004483826200041c565b5060016200005382826200041c565b50505082516000036200009c5760405162461bcd60e51b815260206004820152600c60248201526b6e616d655f3a20656d70747960a01b60448201526064015b60405180910390fd5b8151600003620000e05760405162461bcd60e51b815260206004820152600e60248201526d73796d626f6c5f3a20656d70747960901b604482015260640162000093565b8051600003620001255760405162461bcd60e51b815260206004820152600f60248201526e626173655552495f3a20656d70747960881b604482015260640162000093565b620001326000336200018a565b60086200014082826200041c565b5080604051620001519190620004e8565b604051908190038120907fafa35f42f46f5052816d7c6a2e9406eca98294b20726677862d83b4a7418d8d590600090a250505062000506565b60008281526007602090815260408083206001600160a01b038516845290915290205460ff166200022b5760008281526007602090815260408083206001600160a01b03851684529091529020805460ff19166001179055620001ea3390565b6001600160a01b0316816001600160a01b0316837f2f8788117e7eff1d82e926ec794901d17c78024a50270940304540a733656f0d60405160405180910390a45b5050565b634e487b7160e01b600052604160045260246000fd5b60005b838110156200026257818101518382015260200162000248565b50506000910152565b600082601f8301126200027d57600080fd5b81516001600160401b03808211156200029a576200029a6200022f565b604051601f8301601f19908116603f01168101908282118183101715620002c557620002c56200022f565b81604052838152866020858801011115620002df57600080fd5b620002f284602083016020890162000245565b9695505050505050565b6000806000606084860312156200031257600080fd5b83516001600160401b03808211156200032a57600080fd5b62000338878388016200026b565b945060208601519150808211156200034f57600080fd5b6200035d878388016200026b565b935060408601519150808211156200037457600080fd5b5062000383868287016200026b565b9150509250925092565b600181811c90821680620003a257607f821691505b602082108103620003c357634e487b7160e01b600052602260045260246000fd5b50919050565b601f8211156200041757600081815260208120601f850160051c81016020861015620003f25750805b601f850160051c820191505b818110156200041357828155600101620003fe565b5050505b505050565b81516001600160401b038111156200043857620004386200022f565b62000450816200044984546200038d565b84620003c9565b602080601f8311600181146200048857600084156200046f5750858301515b600019600386901b1c1916600185901b17855562000413565b600085815260208120601f198616915b82811015620004b95788860151825594840194600190910190840162000498565b5085821015620004d85787850151600019600388901b60f8161c191681555b5050505050600190811b01905550565b60008251620004fc81846020870162000245565b9190910192915050565b612a5580620005166000396000f3fe608060405234801561001057600080fd5b50600436106101e55760003560e01c806373889f4a1161010f578063c87b56dd116100a2578063d82c99dc11610071578063d82c99dc1461042b578063dbddb26a1461044b578063dd5c6d4714610453578063e985e9c51461047357600080fd5b8063c87b56dd146103df578063d0def521146103f2578063d4d7b19a14610405578063d547741f1461041857600080fd5b8063a217fddf116100de578063a217fddf14610391578063a22cb46514610399578063b3d8622f146103ac578063b88d4fde146103cc57600080fd5b806373889f4a1461035957806375b238fc1461036157806391d148541461037657806395d89b411461038957600080fd5b806336568abe1161018757806361bc221a1161015657806361bc221a1461030a5780636352211e1461031357806367e767121461032657806370a082311461034657600080fd5b806336568abe146102be57806342842e0e146102d157806342966c68146102e4578063492d306b146102f757600080fd5b8063095ea7b3116101c3578063095ea7b31461025257806323b872dd14610267578063248a9ca31461027a5780632f2ff15d146102ab57600080fd5b806301ffc9a7146101ea57806306fdde0314610212578063081812fc14610227575b600080fd5b6101fd6101f8366004612021565b6104af565b60405190151581526020015b60405180910390f35b61021a6104cf565b604051610209919061208e565b61023a6102353660046120a1565b610561565b6040516001600160a01b039091168152602001610209565b6102656102603660046120d6565b610588565b005b610265610275366004612100565b6106a2565b61029d6102883660046120a1565b60009081526007602052604090206001015490565b604051908152602001610209565b6102656102b936600461213c565b6106d3565b6102656102cc36600461213c565b6106f8565b6102656102df366004612100565b610776565b6102656102f23660046120a1565b610791565b610265610305366004612225565b610803565b61029d60095481565b61023a6103213660046120a1565b6108ad565b610339610334366004612259565b61090d565b604051610209919061228c565b61029d6103543660046122d0565b6109b9565b61029d610a3f565b61029d600080516020612a0083398151915281565b6101fd61038436600461213c565b610a50565b61021a610a7b565b61029d600081565b6102656103a73660046122eb565b610a8a565b6103bf6103ba366004612327565b610a95565b6040516102099190612349565b6102656103da3660046123d1565b610bf3565b61021a6103ed3660046120a1565b610c25565b61026561040036600461244c565b610d28565b6101fd6104133660046122d0565b610df5565b61026561042636600461213c565b610e02565b61043e610439366004612499565b610e27565b604051610209919061253e565b61021a610ece565b610466610461366004612327565b610f5c565b60405161020991906125a0565b6101fd6104813660046125e1565b6001600160a01b03918216600090815260056020908152604080832093909416825291909152205460ff1690565b60006104ba82610ff6565b806104c957506104c98261101b565b92915050565b6060600080546104de9061260b565b80601f016020809104026020016040519081016040528092919081815260200182805461050a9061260b565b80156105575780601f1061052c57610100808354040283529160200191610557565b820191906000526020600020905b81548152906001019060200180831161053a57829003601f168201915b5050505050905090565b600061056c82611040565b506000908152600460205260409020546001600160a01b031690565b6000610593826108ad565b9050806001600160a01b0316836001600160a01b0316036106055760405162461bcd60e51b815260206004820152602160248201527f4552433732313a20617070726f76616c20746f2063757272656e74206f776e656044820152603960f91b60648201526084015b60405180910390fd5b336001600160a01b038216148061062157506106218133610481565b6106935760405162461bcd60e51b815260206004820152603d60248201527f4552433732313a20617070726f76652063616c6c6572206973206e6f7420746f60448201527f6b656e206f776e6572206f7220617070726f76656420666f7220616c6c00000060648201526084016105fc565b61069d83836110a2565b505050565b6106ac3382611110565b6106c85760405162461bcd60e51b81526004016105fc90612645565b61069d83838361118e565b6000828152600760205260409020600101546106ee816112ff565b61069d8383611309565b6001600160a01b03811633146107685760405162461bcd60e51b815260206004820152602f60248201527f416363657373436f6e74726f6c3a2063616e206f6e6c792072656e6f756e636560448201526e103937b632b9903337b91039b2b63360891b60648201526084016105fc565b610772828261138f565b5050565b61069d83838360405180602001604052806000815250610bf3565b600080516020612a008339815191526107a9816112ff565b60006107b4836108ad565b90506107bf836113f6565b6001600160a01b0381166000908152600a602052604090206107e19084611436565b506107eb816109b9565b60000361069d576107fd600b82611449565b50505050565b600080516020612a0083398151915261081b816112ff565b815160000361085e5760405162461bcd60e51b815260206004820152600f60248201526e626173655572695f3a20656d70747960881b60448201526064016105fc565b600861086a83826126e0565b5081604051610879919061279f565b604051908190038120907fafa35f42f46f5052816d7c6a2e9406eca98294b20726677862d83b4a7418d8d590600090a25050565b6000818152600260205260408120546001600160a01b0316806104c95760405162461bcd60e51b8152602060048201526018602482015277115490cdcc8c4e881a5b9d985b1a59081d1bdad95b88125160421b60448201526064016105fc565b60606000826001600160401b0381111561092957610929612168565b604051908082528060200260200182016040528015610952578160200160208202803683370190505b50905060005b838110156109b05761098b61096d86836127d1565b6001600160a01b0388166000908152600a602052604090209061145e565b82828151811061099d5761099d6127e4565b6020908102919091010152600101610958565b50949350505050565b60006001600160a01b038216610a235760405162461bcd60e51b815260206004820152602960248201527f4552433732313a2061646472657373207a65726f206973206e6f7420612076616044820152683634b21037bbb732b960b91b60648201526084016105fc565b506001600160a01b031660009081526003602052604090205490565b6000610a4b600b61146a565b905090565b60009182526007602090815260408084206001600160a01b0393909316845291905290205460ff1690565b6060600180546104de9061260b565b610772338383611474565b60606000826001600160401b03811115610ab157610ab1612168565b604051908082528060200260200182016040528015610afe57816020015b60408051606080820183526000808352602083015291810191909152815260200190600190039081610acf5790505b50905060005b83811015610beb576000610b36610b1b87846127d1565b6000908152600260205260409020546001600160a01b031690565b90506001600160a01b03811615610b865760405180606001604052808784610b5e91906127d1565b81526001600160a01b0383166020820152604001610b7f6103ed89866127d1565b9052610bc5565b60405180606001604052808784610b9d91906127d1565b8152602001826001600160a01b03168152602001604051806020016040528060008152508152505b838381518110610bd757610bd76127e4565b602090810291909101015250600101610b04565b509392505050565b610bfd3383611110565b610c195760405162461bcd60e51b81526004016105fc90612645565b6107fd84848484611542565b6060610c3082611040565b60008281526006602052604081208054610c499061260b565b80601f0160208091040260200160405190810160405280929190818152602001828054610c759061260b565b8015610cc25780601f10610c9757610100808354040283529160200191610cc2565b820191906000526020600020905b815481529060010190602001808311610ca557829003601f168201915b505050505090506000610cd3611575565b90508051600003610ce5575092915050565b815115610d17578082604051602001610cff9291906127fa565b60405160208183030381529060405292505050919050565b610d2084611584565b949350505050565b600080516020612a00833981519152610d40816112ff565b8151600003610d845760405162461bcd60e51b815260206004820152601060248201526f746f6b656e5552495f3a20656d70747960801b60448201526064016105fc565b6009805460009182610d9583612829565b919050559050610da4846109b9565b600003610db857610db6600b856115ea565b505b610dc284826115ff565b610dcc8184611798565b6001600160a01b0384166000908152600a60205260409020610dee9082611863565b5050505050565b60006104c9600b8361186f565b600082815260076020526040902060010154610e1d816112ff565b61069d838361138f565b80516060906000816001600160401b03811115610e4657610e46612168565b604051908082528060200260200182016040528015610e7957816020015b6060815260200190600190039081610e645790505b50905060005b82811015610beb57610ea9858281518110610e9c57610e9c6127e4565b6020026020010151610c25565b828281518110610ebb57610ebb6127e4565b6020908102919091010152600101610e7f565b60088054610edb9061260b565b80601f0160208091040260200160405190810160405280929190818152602001828054610f079061260b565b8015610f545780601f10610f2957610100808354040283529160200191610f54565b820191906000526020600020905b815481529060010190602001808311610f3757829003601f168201915b505050505081565b60606000826001600160401b03811115610f7857610f78612168565b604051908082528060200260200182016040528015610fa1578160200160208202803683370190505b50905060005b83811015610beb57610fc4610fbc86836127d1565b600b9061145e565b828281518110610fd657610fd66127e4565b6001600160a01b0390921660209283029190910190910152600101610fa7565b60006001600160e01b03198216632483248360e11b14806104c957506104c982611891565b60006001600160e01b03198216637965db0b60e01b14806104c957506104c982610ff6565b6000818152600260205260409020546001600160a01b031661109f5760405162461bcd60e51b8152602060048201526018602482015277115490cdcc8c4e881a5b9d985b1a59081d1bdad95b88125160421b60448201526064016105fc565b50565b600081815260046020526040902080546001600160a01b0319166001600160a01b03841690811790915581906110d7826108ad565b6001600160a01b03167f8c5be1e5ebec7d5bd14f71427d1e84f3dd0314c0f7b2291e5b200ac8c7c3b92560405160405180910390a45050565b60008061111c836108ad565b9050806001600160a01b0316846001600160a01b0316148061116357506001600160a01b0380821660009081526005602090815260408083209388168352929052205460ff165b80610d205750836001600160a01b031661117c84610561565b6001600160a01b031614949350505050565b826001600160a01b03166111a1826108ad565b6001600160a01b0316146111c75760405162461bcd60e51b81526004016105fc90612842565b6001600160a01b0382166112295760405162461bcd60e51b8152602060048201526024808201527f4552433732313a207472616e7366657220746f20746865207a65726f206164646044820152637265737360e01b60648201526084016105fc565b61123683838360016118e1565b826001600160a01b0316611249826108ad565b6001600160a01b03161461126f5760405162461bcd60e51b81526004016105fc90612842565b600081815260046020908152604080832080546001600160a01b03199081169091556001600160a01b0387811680865260038552838620805460001901905590871680865283862080546001019055868652600290945282852080549092168417909155905184937fddf252ad1be2c89b69c2b068fc378daa952ba7f163c4a11628f55a4df523b3ef91a4505050565b61109f813361193d565b6113138282610a50565b6107725760008281526007602090815260408083206001600160a01b03851684529091529020805460ff1916600117905561134b3390565b6001600160a01b0316816001600160a01b0316837f2f8788117e7eff1d82e926ec794901d17c78024a50270940304540a733656f0d60405160405180910390a45050565b6113998282610a50565b156107725760008281526007602090815260408083206001600160a01b0385168085529252808320805460ff1916905551339285917ff6391f5c32d9c69d2a47ea670b442974b53935d1edc7fd64eb21e047a839171b9190a45050565b6113ff81611996565b600081815260066020526040902080546114189061260b565b15905061109f57600081815260066020526040812061109f91611fbd565b60006114428383611a39565b9392505050565b6000611442836001600160a01b038416611a39565b60006114428383611b2c565b60006104c9825490565b816001600160a01b0316836001600160a01b0316036114d55760405162461bcd60e51b815260206004820152601960248201527f4552433732313a20617070726f766520746f2063616c6c65720000000000000060448201526064016105fc565b6001600160a01b03838116600081815260056020908152604080832094871680845294825291829020805460ff191686151590811790915591519182527f17307eab39ab6107e8899845ad3d59bd9653f200f220920489ca2b5937696c31910160405180910390a3505050565b61154d84848461118e565b61155984848484611b56565b6107fd5760405162461bcd60e51b81526004016105fc90612887565b6060600880546104de9061260b565b606061158f82611040565b6000611599611575565b905060008151116115b95760405180602001604052806000815250611442565b806115c384611c57565b6040516020016115d49291906127fa565b6040516020818303038152906040529392505050565b6000611442836001600160a01b038416611ce9565b6001600160a01b0382166116555760405162461bcd60e51b815260206004820181905260248201527f4552433732313a206d696e7420746f20746865207a65726f206164647265737360448201526064016105fc565b6000818152600260205260409020546001600160a01b0316156116ba5760405162461bcd60e51b815260206004820152601c60248201527f4552433732313a20746f6b656e20616c7265616479206d696e7465640000000060448201526064016105fc565b6116c86000838360016118e1565b6000818152600260205260409020546001600160a01b03161561172d5760405162461bcd60e51b815260206004820152601c60248201527f4552433732313a20746f6b656e20616c7265616479206d696e7465640000000060448201526064016105fc565b6001600160a01b038216600081815260036020908152604080832080546001019055848352600290915280822080546001600160a01b0319168417905551839291907fddf252ad1be2c89b69c2b068fc378daa952ba7f163c4a11628f55a4df523b3ef908290a45050565b6000828152600260205260409020546001600160a01b03166118135760405162461bcd60e51b815260206004820152602e60248201527f45524337323155524953746f726167653a2055524920736574206f66206e6f6e60448201526d32bc34b9ba32b73a103a37b5b2b760911b60648201526084016105fc565b600082815260066020526040902061182b82826126e0565b506040518281527ff8e1a15aba9398e019f0b49df1a4fde98ee17ae345cb5f6b5e2c27f5033e8ce79060200160405180910390a15050565b60006114428383611ce9565b6001600160a01b03811660009081526001830160205260408120541515611442565b60006001600160e01b031982166380ac58cd60e01b14806118c257506001600160e01b03198216635b5e139f60e01b145b806104c957506301ffc9a760e01b6001600160e01b03198316146104c9565b6001600160a01b03841615806118fe57506001600160a01b038316155b6107fd5760405162461bcd60e51b815260206004820152601060248201526f4e6f74207472616e7366657261626c6560801b60448201526064016105fc565b6119478282610a50565b6107725761195481611d38565b61195f836020611d4a565b6040516020016119709291906128d9565b60408051601f198184030181529082905262461bcd60e51b82526105fc9160040161208e565b60006119a1826108ad565b90506119b18160008460016118e1565b6119ba826108ad565b600083815260046020908152604080832080546001600160a01b03199081169091556001600160a01b0385168085526003845282852080546000190190558785526002909352818420805490911690555192935084927fddf252ad1be2c89b69c2b068fc378daa952ba7f163c4a11628f55a4df523b3ef908390a45050565b60008181526001830160205260408120548015611b22576000611a5d60018361294e565b8554909150600090611a719060019061294e565b9050818114611ad6576000866000018281548110611a9157611a916127e4565b9060005260206000200154905080876000018481548110611ab457611ab46127e4565b6000918252602080832090910192909255918252600188019052604090208390555b8554869080611ae757611ae7612961565b6001900381819060005260206000200160009055905585600101600086815260200190815260200160002060009055600193505050506104c9565b60009150506104c9565b6000826000018281548110611b4357611b436127e4565b9060005260206000200154905092915050565b60006001600160a01b0384163b15611c4c57604051630a85bd0160e11b81526001600160a01b0385169063150b7a0290611b9a903390899088908890600401612977565b6020604051808303816000875af1925050508015611bd5575060408051601f3d908101601f19168201909252611bd2918101906129b4565b60015b611c32573d808015611c03576040519150601f19603f3d011682016040523d82523d6000602084013e611c08565b606091505b508051600003611c2a5760405162461bcd60e51b81526004016105fc90612887565b805181602001fd5b6001600160e01b031916630a85bd0160e11b149050610d20565b506001949350505050565b60606000611c6483611ee5565b60010190506000816001600160401b03811115611c8357611c83612168565b6040519080825280601f01601f191660200182016040528015611cad576020820181803683370190505b5090508181016020015b600019016f181899199a1a9b1b9c1cb0b131b232b360811b600a86061a8153600a8504945084611cb757509392505050565b6000818152600183016020526040812054611d30575081546001818101845560008481526020808220909301849055845484825282860190935260409020919091556104c9565b5060006104c9565b60606104c96001600160a01b03831660145b60606000611d598360026129d1565b611d649060026127d1565b6001600160401b03811115611d7b57611d7b612168565b6040519080825280601f01601f191660200182016040528015611da5576020820181803683370190505b509050600360fc1b81600081518110611dc057611dc06127e4565b60200101906001600160f81b031916908160001a905350600f60fb1b81600181518110611def57611def6127e4565b60200101906001600160f81b031916908160001a9053506000611e138460026129d1565b611e1e9060016127d1565b90505b6001811115611e96576f181899199a1a9b1b9c1cb0b131b232b360811b85600f1660108110611e5257611e526127e4565b1a60f81b828281518110611e6857611e686127e4565b60200101906001600160f81b031916908160001a90535060049490941c93611e8f816129e8565b9050611e21565b5083156114425760405162461bcd60e51b815260206004820181905260248201527f537472696e67733a20686578206c656e67746820696e73756666696369656e7460448201526064016105fc565b60008072184f03e93ff9f4daa797ed6e38ed64bf6a1f0160401b8310611f245772184f03e93ff9f4daa797ed6e38ed64bf6a1f0160401b830492506040015b6d04ee2d6d415b85acef81000000008310611f50576d04ee2d6d415b85acef8100000000830492506020015b662386f26fc100008310611f6e57662386f26fc10000830492506010015b6305f5e1008310611f86576305f5e100830492506008015b6127108310611f9a57612710830492506004015b60648310611fac576064830492506002015b600a83106104c95760010192915050565b508054611fc99061260b565b6000825580601f10611fd9575050565b601f01602090049060005260206000209081019061109f91905b808211156120075760008155600101611ff3565b5090565b6001600160e01b03198116811461109f57600080fd5b60006020828403121561203357600080fd5b81356114428161200b565b60005b83811015612059578181015183820152602001612041565b50506000910152565b6000815180845261207a81602086016020860161203e565b601f01601f19169290920160200192915050565b6020815260006114426020830184612062565b6000602082840312156120b357600080fd5b5035919050565b80356001600160a01b03811681146120d157600080fd5b919050565b600080604083850312156120e957600080fd5b6120f2836120ba565b946020939093013593505050565b60008060006060848603121561211557600080fd5b61211e846120ba565b925061212c602085016120ba565b9150604084013590509250925092565b6000806040838503121561214f57600080fd5b8235915061215f602084016120ba565b90509250929050565b634e487b7160e01b600052604160045260246000fd5b604051601f8201601f191681016001600160401b03811182821017156121a6576121a6612168565b604052919050565b60006001600160401b038311156121c7576121c7612168565b6121da601f8401601f191660200161217e565b90508281528383830111156121ee57600080fd5b828260208301376000602084830101529392505050565b600082601f83011261221657600080fd5b611442838335602085016121ae565b60006020828403121561223757600080fd5b81356001600160401b0381111561224d57600080fd5b610d2084828501612205565b60008060006060848603121561226e57600080fd5b612277846120ba565b95602085013595506040909401359392505050565b6020808252825182820181905260009190848201906040850190845b818110156122c4578351835292840192918401916001016122a8565b50909695505050505050565b6000602082840312156122e257600080fd5b611442826120ba565b600080604083850312156122fe57600080fd5b612307836120ba565b91506020830135801515811461231c57600080fd5b809150509250929050565b6000806040838503121561233a57600080fd5b50508035926020909101359150565b60006020808301818452808551808352604092508286019150828160051b87010184880160005b838110156123c357888303603f19018552815180518452878101516001600160a01b03168885015286015160608785018190526123af81860183612062565b968901969450505090860190600101612370565b509098975050505050505050565b600080600080608085870312156123e757600080fd5b6123f0856120ba565b93506123fe602086016120ba565b92506040850135915060608501356001600160401b0381111561242057600080fd5b8501601f8101871361243157600080fd5b612440878235602084016121ae565b91505092959194509250565b6000806040838503121561245f57600080fd5b612468836120ba565b915060208301356001600160401b0381111561248357600080fd5b61248f85828601612205565b9150509250929050565b600060208083850312156124ac57600080fd5b82356001600160401b03808211156124c357600080fd5b818501915085601f8301126124d757600080fd5b8135818111156124e9576124e9612168565b8060051b91506124fa84830161217e565b818152918301840191848101908884111561251457600080fd5b938501935b8385101561253257843582529385019390850190612519565b98975050505050505050565b6000602080830181845280855180835260408601915060408160051b870101925083870160005b8281101561259357603f19888603018452612581858351612062565b94509285019290850190600101612565565b5092979650505050505050565b6020808252825182820181905260009190848201906040850190845b818110156122c45783516001600160a01b0316835292840192918401916001016125bc565b600080604083850312156125f457600080fd5b6125fd836120ba565b915061215f602084016120ba565b600181811c9082168061261f57607f821691505b60208210810361263f57634e487b7160e01b600052602260045260246000fd5b50919050565b6020808252602d908201527f4552433732313a2063616c6c6572206973206e6f7420746f6b656e206f776e6560408201526c1c881bdc88185c1c1c9bdd9959609a1b606082015260800190565b601f82111561069d57600081815260208120601f850160051c810160208610156126b95750805b601f850160051c820191505b818110156126d8578281556001016126c5565b505050505050565b81516001600160401b038111156126f9576126f9612168565b61270d81612707845461260b565b84612692565b602080601f831160018114612742576000841561272a5750858301515b600019600386901b1c1916600185901b1785556126d8565b600085815260208120601f198616915b8281101561277157888601518255948401946001909101908401612752565b508582101561278f5787850151600019600388901b60f8161c191681555b5050505050600190811b01905550565b600082516127b181846020870161203e565b9190910192915050565b634e487b7160e01b600052601160045260246000fd5b808201808211156104c9576104c96127bb565b634e487b7160e01b600052603260045260246000fd5b6000835161280c81846020880161203e565b83519083019061282081836020880161203e565b01949350505050565b60006001820161283b5761283b6127bb565b5060010190565b60208082526025908201527f4552433732313a207472616e736665722066726f6d20696e636f72726563742060408201526437bbb732b960d91b606082015260800190565b60208082526032908201527f4552433732313a207472616e7366657220746f206e6f6e20455243373231526560408201527131b2b4bb32b91034b6b83632b6b2b73a32b960711b606082015260800190565b7f416363657373436f6e74726f6c3a206163636f756e742000000000000000000081526000835161291181601785016020880161203e565b7001034b99036b4b9b9b4b733903937b6329607d1b601791840191820152835161294281602884016020880161203e565b01602801949350505050565b818103818111156104c9576104c96127bb565b634e487b7160e01b600052603160045260246000fd5b6001600160a01b03858116825284166020820152604081018390526080606082018190526000906129aa90830184612062565b9695505050505050565b6000602082840312156129c657600080fd5b81516114428161200b565b80820281158282048414176104c9576104c96127bb565b6000816129f7576129f76127bb565b50600019019056fea49807205ce4d355092ef5a8a18f56e8913cf4a201fbe287825b095693c21775a2646970667358221220449536bd3ecb298759fb871753baaff2a6998c282d2d9fb18279ce5d360f792464736f6c63430008120033",
  "devdoc": {
    "author": "Крипто$лоня₽ы team",
    "events": {
      "Approval(address,address,uint256)": {
        "details": "Emitted when `owner` enables `approved` to manage the `tokenId` token."
      },
      "ApprovalForAll(address,address,bool)": {
        "details": "Emitted when `owner` enables or disables (`approved`) `operator` to manage all of its assets."
      },
      "BatchMetadataUpdate(uint256,uint256)": {
        "details": "This event emits when the metadata of a range of tokens is changed. So that the third-party platforms such as NFT market could timely update the images and related attributes of the NFTs."
      },
      "MetadataUpdate(uint256)": {
        "details": "This event emits when the metadata of a token is changed. So that the third-party platforms such as NFT market could timely update the images and related attributes of the NFT."
      },
      "RoleAdminChanged(bytes32,bytes32,bytes32)": {
        "details": "Emitted when `newAdminRole` is set as ``role``'s admin role, replacing `previousAdminRole` `DEFAULT_ADMIN_ROLE` is the starting admin for all roles, despite {RoleAdminChanged} not being emitted signaling this. _Available since v3.1._"
      },
      "RoleGranted(bytes32,address,address)": {
        "details": "Emitted when `account` is granted `role`. `sender` is the account that originated the contract call, an admin role bearer except when using {AccessControl-_setupRole}."
      },
      "RoleRevoked(bytes32,address,address)": {
        "details": "Emitted when `account` is revoked `role`. `sender` is the account that originated the contract call:   - if using `revokeRole`, it is the admin role bearer   - if using `renounceRole`, it is the role bearer (i.e. `account`)"
      },
      "Transfer(address,address,uint256)": {
        "details": "Emitted when `tokenId` token is transferred from `from` to `to`."
      }
    },
    "kind": "dev",
    "methods": {
      "approve(address,uint256)": {
        "details": "See {IERC721-approve}."
      },
      "balanceOf(address)": {
        "details": "See {IERC721-balanceOf}."
      },
      "burn(uint256)": {
        "params": {
          "tokenId_": "NFT ID"
        }
      },
      "changeBaseUri(string)": {
        "params": {
          "baseUri_": "New base URI"
        }
      },
      "constructor": {
        "params": {
          "baseURI_": "Base URI for all NFT IDs",
          "name_": "Collection name",
          "symbol_": "Collection symbol"
        }
      },
      "getAllURIsInfo(uint256,uint256)": {
        "params": {
          "limit": "Return size limit",
          "offset": "Offset to start with"
        }
      },
      "getApproved(uint256)": {
        "details": "See {IERC721-getApproved}."
      },
      "getHoldersSlice(uint256,uint256)": {
        "params": {
          "limit": "Return size limit",
          "offset": "Offset to start with"
        }
      },
      "getIdsSliceByHolder(address,uint256,uint256)": {
        "details": "Offset-limit is necessary for the guaranteed return of a large array",
        "params": {
          "holder": "User address",
          "limit": "Return size limit",
          "offset": "Offset to start with"
        }
      },
      "getRoleAdmin(bytes32)": {
        "details": "Returns the admin role that controls `role`. See {grantRole} and {revokeRole}. To change a role's admin, use {_setRoleAdmin}."
      },
      "getURIs(uint256[])": {
        "params": {
          "ids": "NFT IDs"
        }
      },
      "grantRole(bytes32,address)": {
        "details": "Grants `role` to `account`. If `account` had not been already granted `role`, emits a {RoleGranted} event. Requirements: - the caller must have ``role``'s admin role. May emit a {RoleGranted} event."
      },
      "hasRole(bytes32,address)": {
        "details": "Returns `true` if `account` has been granted `role`."
      },
      "isApprovedForAll(address,address)": {
        "details": "See {IERC721-isApprovedForAll}."
      },
      "isHolder(address)": {
        "params": {
          "holder": "User address"
        }
      },
      "mint(address,string)": {
        "params": {
          "to_": "Owner of the newly created NFT",
          "tokenURI_": "NFT URI"
        }
      },
      "name()": {
        "details": "See {IERC721Metadata-name}."
      },
      "ownerOf(uint256)": {
        "details": "See {IERC721-ownerOf}."
      },
      "renounceRole(bytes32,address)": {
        "details": "Revokes `role` from the calling account. Roles are often managed via {grantRole} and {revokeRole}: this function's purpose is to provide a mechanism for accounts to lose their privileges if they are compromised (such as when a trusted device is misplaced). If the calling account had been revoked `role`, emits a {RoleRevoked} event. Requirements: - the caller must be `account`. May emit a {RoleRevoked} event."
      },
      "revokeRole(bytes32,address)": {
        "details": "Revokes `role` from `account`. If `account` had been granted `role`, emits a {RoleRevoked} event. Requirements: - the caller must have ``role``'s admin role. May emit a {RoleRevoked} event."
      },
      "safeTransferFrom(address,address,uint256)": {
        "details": "See {IERC721-safeTransferFrom}."
      },
      "safeTransferFrom(address,address,uint256,bytes)": {
        "details": "See {IERC721-safeTransferFrom}."
      },
      "setApprovalForAll(address,bool)": {
        "details": "See {IERC721-setApprovalForAll}."
      },
      "supportsInterface(bytes4)": {
        "details": "See {IERC165-supportsInterface}."
      },
      "symbol()": {
        "details": "See {IERC721Metadata-symbol}."
      },
      "tokenURI(uint256)": {
        "details": "See {IERC721Metadata-tokenURI}."
      },
      "transferFrom(address,address,uint256)": {
        "details": "See {IERC721-transferFrom}."
      }
    },
    "title": "NFT contract for Digital Profiles",
    "version": 1
  },
  "userdoc": {
    "kind": "user",
    "methods": {
      "burn(uint256)": {
        "notice": "Deletes NFT"
      },
      "changeBaseUri(string)": {
        "notice": "Emergency function to change base URI"
      },
      "getAllURIsInfo(uint256,uint256)": {
        "notice": "Helper function to get all NFTs info"
      },
      "getHoldersCount()": {
        "notice": "Helper function to get NFT holders amount"
      },
      "getHoldersSlice(uint256,uint256)": {
        "notice": "Helper function to get NFT holders list"
      },
      "getIdsSliceByHolder(address,uint256,uint256)": {
        "notice": "Helper function to get slice of user NFT IDs"
      },
      "getURIs(uint256[])": {
        "notice": "Helper function to get list of metadata per call"
      },
      "isHolder(address)": {
        "notice": "Helper function to get whether a user is an NFT holder or not"
      },
      "mint(address,string)": {
        "notice": "Creates a new NFT"
      }
    },
    "notice": "Allows to mint/burn NFT for ADMIN_ROLE, metadata is immutable and can't be changed after mint.",
    "version": 1
  },
  "storageLayout": {
    "storage": [
      {
        "astId": 442,
        "contract": "contracts/NFT.sol:NFT",
        "label": "_name",
        "offset": 0,
        "slot": "0",
        "type": "t_string_storage"
      },
      {
        "astId": 444,
        "contract": "contracts/NFT.sol:NFT",
        "label": "_symbol",
        "offset": 0,
        "slot": "1",
        "type": "t_string_storage"
      },
      {
        "astId": 448,
        "contract": "contracts/NFT.sol:NFT",
        "label": "_owners",
        "offset": 0,
        "slot": "2",
        "type": "t_mapping(t_uint256,t_address)"
      },
      {
        "astId": 452,
        "contract": "contracts/NFT.sol:NFT",
        "label": "_balances",
        "offset": 0,
        "slot": "3",
        "type": "t_mapping(t_address,t_uint256)"
      },
      {
        "astId": 456,
        "contract": "contracts/NFT.sol:NFT",
        "label": "_tokenApprovals",
        "offset": 0,
        "slot": "4",
        "type": "t_mapping(t_uint256,t_address)"
      },
      {
        "astId": 462,
        "contract": "contracts/NFT.sol:NFT",
        "label": "_operatorApprovals",
        "offset": 0,
        "slot": "5",
        "type": "t_mapping(t_address,t_mapping(t_address,t_bool))"
      },
      {
        "astId": 1493,
        "contract": "contracts/NFT.sol:NFT",
        "label": "_tokenURIs",
        "offset": 0,
        "slot": "6",
        "type": "t_mapping(t_uint256,t_string_storage)"
      },
      {
        "astId": 24,
        "contract": "contracts/NFT.sol:NFT",
        "label": "_roles",
        "offset": 0,
        "slot": "7",
        "type": "t_mapping(t_bytes32,t_struct(RoleData)19_storage)"
      },
      {
        "astId": 3905,
        "contract": "contracts/NFT.sol:NFT",
        "label": "BASE_URI",
        "offset": 0,
        "slot": "8",
        "type": "t_string_storage"
      },
      {
        "astId": 3907,
        "contract": "contracts/NFT.sol:NFT",
        "label": "counter",
        "offset": 0,
        "slot": "9",
        "type": "t_uint256"
      },
      {
        "astId": 3912,
        "contract": "contracts/NFT.sol:NFT",
        "label": "_idsPerHolder",
        "offset": 0,
        "slot": "10",
        "type": "t_mapping(t_address,t_struct(UintSet)3739_storage)"
      },
      {
        "astId": 3915,
        "contract": "contracts/NFT.sol:NFT",
        "label": "_holders",
        "offset": 0,
        "slot": "11",
        "type": "t_struct(AddressSet)3582_storage"
      }
    ],
    "types": {
      "t_address": {
        "encoding": "inplace",
        "label": "address",
        "numberOfBytes": "20"
      },
      "t_array(t_bytes32)dyn_storage": {
        "base": "t_bytes32",
        "encoding": "dynamic_array",
        "label": "bytes32[]",
        "numberOfBytes": "32"
      },
      "t_bool": {
        "encoding": "inplace",
        "label": "bool",
        "numberOfBytes": "1"
      },
      "t_bytes32": {
        "encoding": "inplace",
        "label": "bytes32",
        "numberOfBytes": "32"
      },
      "t_mapping(t_address,t_bool)": {
        "encoding": "mapping",
        "key": "t_address",
        "label": "mapping(address => bool)",
        "numberOfBytes": "32",
        "value": "t_bool"
      },
      "t_mapping(t_address,t_mapping(t_address,t_bool))": {
        "encoding": "mapping",
        "key": "t_address",
        "label": "mapping(address => mapping(address => bool))",
        "numberOfBytes": "32",
        "value": "t_mapping(t_address,t_bool)"
      },
      "t_mapping(t_address,t_struct(UintSet)3739_storage)": {
        "encoding": "mapping",
        "key": "t_address",
        "label": "mapping(address => struct EnumerableSet.UintSet)",
        "numberOfBytes": "32",
        "value": "t_struct(UintSet)3739_storage"
      },
      "t_mapping(t_address,t_uint256)": {
        "encoding": "mapping",
        "key": "t_address",
        "label": "mapping(address => uint256)",
        "numberOfBytes": "32",
        "value": "t_uint256"
      },
      "t_mapping(t_bytes32,t_struct(RoleData)19_storage)": {
        "encoding": "mapping",
        "key": "t_bytes32",
        "label": "mapping(bytes32 => struct AccessControl.RoleData)",
        "numberOfBytes": "32",
        "value": "t_struct(RoleData)19_storage"
      },
      "t_mapping(t_bytes32,t_uint256)": {
        "encoding": "mapping",
        "key": "t_bytes32",
        "label": "mapping(bytes32 => uint256)",
        "numberOfBytes": "32",
        "value": "t_uint256"
      },
      "t_mapping(t_uint256,t_address)": {
        "encoding": "mapping",
        "key": "t_uint256",
        "label": "mapping(uint256 => address)",
        "numberOfBytes": "32",
        "value": "t_address"
      },
      "t_mapping(t_uint256,t_string_storage)": {
        "encoding": "mapping",
        "key": "t_uint256",
        "label": "mapping(uint256 => string)",
        "numberOfBytes": "32",
        "value": "t_string_storage"
      },
      "t_string_storage": {
        "encoding": "bytes",
        "label": "string",
        "numberOfBytes": "32"
      },
      "t_struct(AddressSet)3582_storage": {
        "encoding": "inplace",
        "label": "struct EnumerableSet.AddressSet",
        "members": [
          {
            "astId": 3581,
            "contract": "contracts/NFT.sol:NFT",
            "label": "_inner",
            "offset": 0,
            "slot": "0",
            "type": "t_struct(Set)3267_storage"
          }
        ],
        "numberOfBytes": "64"
      },
      "t_struct(RoleData)19_storage": {
        "encoding": "inplace",
        "label": "struct AccessControl.RoleData",
        "members": [
          {
            "astId": 16,
            "contract": "contracts/NFT.sol:NFT",
            "label": "members",
            "offset": 0,
            "slot": "0",
            "type": "t_mapping(t_address,t_bool)"
          },
          {
            "astId": 18,
            "contract": "contracts/NFT.sol:NFT",
            "label": "adminRole",
            "offset": 0,
            "slot": "1",
            "type": "t_bytes32"
          }
        ],
        "numberOfBytes": "64"
      },
      "t_struct(Set)3267_storage": {
        "encoding": "inplace",
        "label": "struct EnumerableSet.Set",
        "members": [
          {
            "astId": 3262,
            "contract": "contracts/NFT.sol:NFT",
            "label": "_values",
            "offset": 0,
            "slot": "0",
            "type": "t_array(t_bytes32)dyn_storage"
          },
          {
            "astId": 3266,
            "contract": "contracts/NFT.sol:NFT",
            "label": "_indexes",
            "offset": 0,
            "slot": "1",
            "type": "t_mapping(t_bytes32,t_uint256)"
          }
        ],
        "numberOfBytes": "64"
      },
      "t_struct(UintSet)3739_storage": {
        "encoding": "inplace",
        "label": "struct EnumerableSet.UintSet",
        "members": [
          {
            "astId": 3738,
            "contract": "contracts/NFT.sol:NFT",
            "label": "_inner",
            "offset": 0,
            "slot": "0",
            "type": "t_struct(Set)3267_storage"
          }
        ],
        "numberOfBytes": "64"
      },
      "t_uint256": {
        "encoding": "inplace",
        "label": "uint256",
        "numberOfBytes": "32"
      }
    }
  }
}