{
  "address": "0x130a563E1d2CBe7D9fc1DCd20a291e703baff8F9",
  "abi": [
    {
      "inputs": [
        {
          "internalType": "string",
          "name": "name_",
          "type": "string"
        },
        {
          "internalType": "string",
          "name": "symbol_",
          "type": "string"
        },
        {
          "internalType": "string",
          "name": "baseURI_",
          "type": "string"
        }
      ],
      "stateMutability": "nonpayable",
      "type": "constructor"
    },
    {
      "anonymous": false,
      "inputs": [
        {
          "indexed": true,
          "internalType": "address",
          "name": "owner",
          "type": "address"
        },
        {
          "indexed": true,
          "internalType": "address",
          "name": "approved",
          "type": "address"
        },
        {
          "indexed": true,
          "internalType": "uint256",
          "name": "tokenId",
          "type": "uint256"
        }
      ],
      "name": "Approval",
      "type": "event"
    },
    {
      "anonymous": false,
      "inputs": [
        {
          "indexed": true,
          "internalType": "address",
          "name": "owner",
          "type": "address"
        },
        {
          "indexed": true,
          "internalType": "address",
          "name": "operator",
          "type": "address"
        },
        {
          "indexed": false,
          "internalType": "bool",
          "name": "approved",
          "type": "bool"
        }
      ],
      "name": "ApprovalForAll",
      "type": "event"
    },
    {
      "anonymous": false,
      "inputs": [
        {
          "indexed": false,
          "internalType": "uint256",
          "name": "_fromTokenId",
          "type": "uint256"
        },
        {
          "indexed": false,
          "internalType": "uint256",
          "name": "_toTokenId",
          "type": "uint256"
        }
      ],
      "name": "BatchMetadataUpdate",
      "type": "event"
    },
    {
      "anonymous": false,
      "inputs": [
        {
          "indexed": false,
          "internalType": "uint256",
          "name": "_tokenId",
          "type": "uint256"
        }
      ],
      "name": "MetadataUpdate",
      "type": "event"
    },
    {
      "anonymous": false,
      "inputs": [
        {
          "indexed": true,
          "internalType": "bytes32",
          "name": "role",
          "type": "bytes32"
        },
        {
          "indexed": true,
          "internalType": "bytes32",
          "name": "previousAdminRole",
          "type": "bytes32"
        },
        {
          "indexed": true,
          "internalType": "bytes32",
          "name": "newAdminRole",
          "type": "bytes32"
        }
      ],
      "name": "RoleAdminChanged",
      "type": "event"
    },
    {
      "anonymous": false,
      "inputs": [
        {
          "indexed": true,
          "internalType": "bytes32",
          "name": "role",
          "type": "bytes32"
        },
        {
          "indexed": true,
          "internalType": "address",
          "name": "account",
          "type": "address"
        },
        {
          "indexed": true,
          "internalType": "address",
          "name": "sender",
          "type": "address"
        }
      ],
      "name": "RoleGranted",
      "type": "event"
    },
    {
      "anonymous": false,
      "inputs": [
        {
          "indexed": true,
          "internalType": "bytes32",
          "name": "role",
          "type": "bytes32"
        },
        {
          "indexed": true,
          "internalType": "address",
          "name": "account",
          "type": "address"
        },
        {
          "indexed": true,
          "internalType": "address",
          "name": "sender",
          "type": "address"
        }
      ],
      "name": "RoleRevoked",
      "type": "event"
    },
    {
      "anonymous": false,
      "inputs": [
        {
          "indexed": true,
          "internalType": "string",
          "name": "newBaseUri",
          "type": "string"
        }
      ],
      "name": "SetBaseUri",
      "type": "event"
    },
    {
      "anonymous": false,
      "inputs": [
        {
          "indexed": true,
          "internalType": "address",
          "name": "from",
          "type": "address"
        },
        {
          "indexed": true,
          "internalType": "address",
          "name": "to",
          "type": "address"
        },
        {
          "indexed": true,
          "internalType": "uint256",
          "name": "tokenId",
          "type": "uint256"
        }
      ],
      "name": "Transfer",
      "type": "event"
    },
    {
      "inputs": [],
      "name": "ADMIN_ROLE",
      "outputs": [
        {
          "internalType": "bytes32",
          "name": "",
          "type": "bytes32"
        }
      ],
      "stateMutability": "view",
      "type": "function"
    },
    {
      "inputs": [],
      "name": "BASE_URI",
      "outputs": [
        {
          "internalType": "string",
          "name": "",
          "type": "string"
        }
      ],
      "stateMutability": "view",
      "type": "function"
    },
    {
      "inputs": [],
      "name": "DEFAULT_ADMIN_ROLE",
      "outputs": [
        {
          "internalType": "bytes32",
          "name": "",
          "type": "bytes32"
        }
      ],
      "stateMutability": "view",
      "type": "function"
    },
    {
      "inputs": [
        {
          "internalType": "address",
          "name": "to",
          "type": "address"
        },
        {
          "internalType": "uint256",
          "name": "tokenId",
          "type": "uint256"
        }
      ],
      "name": "approve",
      "outputs": [],
      "stateMutability": "nonpayable",
      "type": "function"
    },
    {
      "inputs": [
        {
          "internalType": "address",
          "name": "owner",
          "type": "address"
        }
      ],
      "name": "balanceOf",
      "outputs": [
        {
          "internalType": "uint256",
          "name": "",
          "type": "uint256"
        }
      ],
      "stateMutability": "view",
      "type": "function"
    },
    {
      "inputs": [
        {
          "internalType": "uint256",
          "name": "tokenId_",
          "type": "uint256"
        }
      ],
      "name": "burn",
      "outputs": [],
      "stateMutability": "nonpayable",
      "type": "function"
    },
    {
      "inputs": [
        {
          "internalType": "string",
          "name": "baseUri_",
          "type": "string"
        }
      ],
      "name": "changeBaseUri",
      "outputs": [],
      "stateMutability": "nonpayable",
      "type": "function"
    },
    {
      "inputs": [],
      "name": "counter",
      "outputs": [
        {
          "internalType": "uint256",
          "name": "",
          "type": "uint256"
        }
      ],
      "stateMutability": "view",
      "type": "function"
    },
    {
      "inputs": [
        {
          "internalType": "uint256",
          "name": "offset",
          "type": "uint256"
        },
        {
          "internalType": "uint256",
          "name": "limit",
          "type": "uint256"
        }
      ],
      "name": "getAllURIsInfo",
      "outputs": [
        {
          "components": [
            {
              "internalType": "uint256",
              "name": "tokenId",
              "type": "uint256"
            },
            {
              "internalType": "address",
              "name": "owner",
              "type": "address"
            },
            {
              "internalType": "string",
              "name": "tokenUri",
              "type": "string"
            }
          ],
          "internalType": "struct NFT.Info[]",
          "name": "",
          "type": "tuple[]"
        }
      ],
      "stateMutability": "view",
      "type": "function"
    },
    {
      "inputs": [
        {
          "internalType": "uint256",
          "name": "tokenId",
          "type": "uint256"
        }
      ],
      "name": "getApproved",
      "outputs": [
        {
          "internalType": "address",
          "name": "",
          "type": "address"
        }
      ],
      "stateMutability": "view",
      "type": "function"
    },
    {
      "inputs": [
        {
          "internalType": "address",
          "name": "holder",
          "type": "address"
        },
        {
          "internalType": "uint256",
          "name": "offset",
          "type": "uint256"
        },
        {
          "internalType": "uint256",
          "name": "limit",
          "type": "uint256"
        }
      ],
      "name": "getIdsSliceByHolder",
      "outputs": [
        {
          "internalType": "uint256[]",
          "name": "",
          "type": "uint256[]"
        }
      ],
      "stateMutability": "view",
      "type": "function"
    },
    {
      "inputs": [
        {
          "internalType": "bytes32",
          "name": "role",
          "type": "bytes32"
        }
      ],
      "name": "getRoleAdmin",
      "outputs": [
        {
          "internalType": "bytes32",
          "name": "",
          "type": "bytes32"
        }
      ],
      "stateMutability": "view",
      "type": "function"
    },
    {
      "inputs": [
        {
          "internalType": "uint256[]",
          "name": "ids",
          "type": "uint256[]"
        }
      ],
      "name": "getURIs",
      "outputs": [
        {
          "internalType": "string[]",
          "name": "",
          "type": "string[]"
        }
      ],
      "stateMutability": "view",
      "type": "function"
    },
    {
      "inputs": [
        {
          "internalType": "bytes32",
          "name": "role",
          "type": "bytes32"
        },
        {
          "internalType": "address",
          "name": "account",
          "type": "address"
        }
      ],
      "name": "grantRole",
      "outputs": [],
      "stateMutability": "nonpayable",
      "type": "function"
    },
    {
      "inputs": [
        {
          "internalType": "bytes32",
          "name": "role",
          "type": "bytes32"
        },
        {
          "internalType": "address",
          "name": "account",
          "type": "address"
        }
      ],
      "name": "hasRole",
      "outputs": [
        {
          "internalType": "bool",
          "name": "",
          "type": "bool"
        }
      ],
      "stateMutability": "view",
      "type": "function"
    },
    {
      "inputs": [
        {
          "internalType": "address",
          "name": "owner",
          "type": "address"
        },
        {
          "internalType": "address",
          "name": "operator",
          "type": "address"
        }
      ],
      "name": "isApprovedForAll",
      "outputs": [
        {
          "internalType": "bool",
          "name": "",
          "type": "bool"
        }
      ],
      "stateMutability": "view",
      "type": "function"
    },
    {
      "inputs": [
        {
          "internalType": "address",
          "name": "to_",
          "type": "address"
        },
        {
          "internalType": "string",
          "name": "tokenURI_",
          "type": "string"
        }
      ],
      "name": "mint",
      "outputs": [],
      "stateMutability": "nonpayable",
      "type": "function"
    },
    {
      "inputs": [],
      "name": "name",
      "outputs": [
        {
          "internalType": "string",
          "name": "",
          "type": "string"
        }
      ],
      "stateMutability": "view",
      "type": "function"
    },
    {
      "inputs": [
        {
          "internalType": "uint256",
          "name": "tokenId",
          "type": "uint256"
        }
      ],
      "name": "ownerOf",
      "outputs": [
        {
          "internalType": "address",
          "name": "",
          "type": "address"
        }
      ],
      "stateMutability": "view",
      "type": "function"
    },
    {
      "inputs": [
        {
          "internalType": "bytes32",
          "name": "role",
          "type": "bytes32"
        },
        {
          "internalType": "address",
          "name": "account",
          "type": "address"
        }
      ],
      "name": "renounceRole",
      "outputs": [],
      "stateMutability": "nonpayable",
      "type": "function"
    },
    {
      "inputs": [
        {
          "internalType": "bytes32",
          "name": "role",
          "type": "bytes32"
        },
        {
          "internalType": "address",
          "name": "account",
          "type": "address"
        }
      ],
      "name": "revokeRole",
      "outputs": [],
      "stateMutability": "nonpayable",
      "type": "function"
    },
    {
      "inputs": [
        {
          "internalType": "address",
          "name": "from",
          "type": "address"
        },
        {
          "internalType": "address",
          "name": "to",
          "type": "address"
        },
        {
          "internalType": "uint256",
          "name": "tokenId",
          "type": "uint256"
        }
      ],
      "name": "safeTransferFrom",
      "outputs": [],
      "stateMutability": "nonpayable",
      "type": "function"
    },
    {
      "inputs": [
        {
          "internalType": "address",
          "name": "from",
          "type": "address"
        },
        {
          "internalType": "address",
          "name": "to",
          "type": "address"
        },
        {
          "internalType": "uint256",
          "name": "tokenId",
          "type": "uint256"
        },
        {
          "internalType": "bytes",
          "name": "data",
          "type": "bytes"
        }
      ],
      "name": "safeTransferFrom",
      "outputs": [],
      "stateMutability": "nonpayable",
      "type": "function"
    },
    {
      "inputs": [
        {
          "internalType": "address",
          "name": "operator",
          "type": "address"
        },
        {
          "internalType": "bool",
          "name": "approved",
          "type": "bool"
        }
      ],
      "name": "setApprovalForAll",
      "outputs": [],
      "stateMutability": "nonpayable",
      "type": "function"
    },
    {
      "inputs": [
        {
          "internalType": "bytes4",
          "name": "interfaceId",
          "type": "bytes4"
        }
      ],
      "name": "supportsInterface",
      "outputs": [
        {
          "internalType": "bool",
          "name": "",
          "type": "bool"
        }
      ],
      "stateMutability": "view",
      "type": "function"
    },
    {
      "inputs": [],
      "name": "symbol",
      "outputs": [
        {
          "internalType": "string",
          "name": "",
          "type": "string"
        }
      ],
      "stateMutability": "view",
      "type": "function"
    },
    {
      "inputs": [
        {
          "internalType": "uint256",
          "name": "tokenId",
          "type": "uint256"
        }
      ],
      "name": "tokenURI",
      "outputs": [
        {
          "internalType": "string",
          "name": "",
          "type": "string"
        }
      ],
      "stateMutability": "view",
      "type": "function"
    },
    {
      "inputs": [
        {
          "internalType": "address",
          "name": "from",
          "type": "address"
        },
        {
          "internalType": "address",
          "name": "to",
          "type": "address"
        },
        {
          "internalType": "uint256",
          "name": "tokenId",
          "type": "uint256"
        }
      ],
      "name": "transferFrom",
      "outputs": [],
      "stateMutability": "nonpayable",
      "type": "function"
    }
  ],
  "transactionHash": "0x70f927f85f01bd1a23afd77bf0906aa041fce0deee8d219f6b550650c5d3d57d",
  "args": [
    "Крипто$лоня₽ы Collection",
    "KC",
    "https://ipfs.io/ipfs/"
  ],
  "numDeployments": 4,
  "solcInputHash": "474e6c02a88f5b02596febfd122eaf4b",
  "bytecode": "0x60806040523480156200001157600080fd5b5060405162002d9338038062002d938339810160408190526200003491620002fc565b828260006200004483826200041c565b5060016200005382826200041c565b50505082516000036200009c5760405162461bcd60e51b815260206004820152600c60248201526b6e616d655f3a20656d70747960a01b60448201526064015b60405180910390fd5b8151600003620000e05760405162461bcd60e51b815260206004820152600e60248201526d73796d626f6c5f3a20656d70747960901b604482015260640162000093565b8051600003620001255760405162461bcd60e51b815260206004820152600f60248201526e626173655552495f3a20656d70747960881b604482015260640162000093565b620001326000336200018a565b60086200014082826200041c565b5080604051620001519190620004e8565b604051908190038120907fafa35f42f46f5052816d7c6a2e9406eca98294b20726677862d83b4a7418d8d590600090a250505062000506565b60008281526007602090815260408083206001600160a01b038516845290915290205460ff166200022b5760008281526007602090815260408083206001600160a01b03851684529091529020805460ff19166001179055620001ea3390565b6001600160a01b0316816001600160a01b0316837f2f8788117e7eff1d82e926ec794901d17c78024a50270940304540a733656f0d60405160405180910390a45b5050565b634e487b7160e01b600052604160045260246000fd5b60005b838110156200026257818101518382015260200162000248565b50506000910152565b600082601f8301126200027d57600080fd5b81516001600160401b03808211156200029a576200029a6200022f565b604051601f8301601f19908116603f01168101908282118183101715620002c557620002c56200022f565b81604052838152866020858801011115620002df57600080fd5b620002f284602083016020890162000245565b9695505050505050565b6000806000606084860312156200031257600080fd5b83516001600160401b03808211156200032a57600080fd5b62000338878388016200026b565b945060208601519150808211156200034f57600080fd5b6200035d878388016200026b565b935060408601519150808211156200037457600080fd5b5062000383868287016200026b565b9150509250925092565b600181811c90821680620003a257607f821691505b602082108103620003c357634e487b7160e01b600052602260045260246000fd5b50919050565b601f8211156200041757600081815260208120601f850160051c81016020861015620003f25750805b601f850160051c820191505b818110156200041357828155600101620003fe565b5050505b505050565b81516001600160401b038111156200043857620004386200022f565b62000450816200044984546200038d565b84620003c9565b602080601f8311600181146200048857600084156200046f5750858301515b600019600386901b1c1916600185901b17855562000413565b600085815260208120601f198616915b82811015620004b95788860151825594840194600190910190840162000498565b5085821015620004d85787850151600019600388901b60f8161c191681555b5050505050600190811b01905550565b60008251620004fc81846020870162000245565b9190910192915050565b61287d80620005166000396000f3fe608060405234801561001057600080fd5b50600436106101c45760003560e01c806370a08231116100f9578063b88d4fde11610097578063d547741f11610071578063d547741f146103dc578063d82c99dc146103ef578063dbddb26a1461040f578063e985e9c51461041757600080fd5b8063b88d4fde146103a3578063c87b56dd146103b6578063d0def521146103c957600080fd5b806395d89b41116100d357806395d89b4114610360578063a217fddf14610368578063a22cb46514610370578063b3d8622f1461038357600080fd5b806370a082311461032557806375b238fc1461033857806391d148541461034d57600080fd5b806336568abe11610166578063492d306b11610140578063492d306b146102d657806361bc221a146102e95780636352211e146102f257806367e767121461030557600080fd5b806336568abe1461029d57806342842e0e146102b057806342966c68146102c357600080fd5b8063095ea7b3116101a2578063095ea7b31461023157806323b872dd14610246578063248a9ca3146102595780632f2ff15d1461028a57600080fd5b806301ffc9a7146101c957806306fdde03146101f1578063081812fc14610206575b600080fd5b6101dc6101d7366004611e83565b610453565b60405190151581526020015b60405180910390f35b6101f9610473565b6040516101e89190611ef0565b610219610214366004611f03565b610505565b6040516001600160a01b0390911681526020016101e8565b61024461023f366004611f38565b61052c565b005b610244610254366004611f62565b610646565b61027c610267366004611f03565b60009081526007602052604090206001015490565b6040519081526020016101e8565b610244610298366004611f9e565b610677565b6102446102ab366004611f9e565b61069c565b6102446102be366004611f62565b61071a565b6102446102d1366004611f03565b610735565b6102446102e4366004612089565b61078b565b61027c60095481565b610219610300366004611f03565b610835565b6103186103133660046120be565b610895565b6040516101e891906120f1565b61027c610333366004612135565b610942565b61027c60008051602061282883398151915281565b6101dc61035b366004611f9e565b6109c8565b6101f96109f3565b61027c600081565b61024461037e366004612150565b610a02565b61039661039136600461218c565b610a0d565b6040516101e891906121ae565b6102446103b1366004612236565b610b6c565b6101f96103c4366004611f03565b610b9e565b6102446103d73660046122b2565b610ca1565b6102446103ea366004611f9e565b610d51565b6104026103fd366004612300565b610d76565b6040516101e891906123a6565b6101f9610e1e565b6101dc610425366004612408565b6001600160a01b03918216600090815260056020908152604080832093909416825291909152205460ff1690565b600061045e82610eac565b8061046d575061046d82610ed1565b92915050565b60606000805461048290612432565b80601f01602080910402602001604051908101604052809291908181526020018280546104ae90612432565b80156104fb5780601f106104d0576101008083540402835291602001916104fb565b820191906000526020600020905b8154815290600101906020018083116104de57829003601f168201915b5050505050905090565b600061051082610ef6565b506000908152600460205260409020546001600160a01b031690565b600061053782610835565b9050806001600160a01b0316836001600160a01b0316036105a95760405162461bcd60e51b815260206004820152602160248201527f4552433732313a20617070726f76616c20746f2063757272656e74206f776e656044820152603960f91b60648201526084015b60405180910390fd5b336001600160a01b03821614806105c557506105c58133610425565b6106375760405162461bcd60e51b815260206004820152603d60248201527f4552433732313a20617070726f76652063616c6c6572206973206e6f7420746f60448201527f6b656e206f776e6572206f7220617070726f76656420666f7220616c6c00000060648201526084016105a0565b6106418383610f58565b505050565b6106503382610fc6565b61066c5760405162461bcd60e51b81526004016105a09061246c565b610641838383611044565b600082815260076020526040902060010154610692816111b5565b61064183836111bf565b6001600160a01b038116331461070c5760405162461bcd60e51b815260206004820152602f60248201527f416363657373436f6e74726f6c3a2063616e206f6e6c792072656e6f756e636560448201526e103937b632b9903337b91039b2b63360891b60648201526084016105a0565b6107168282611245565b5050565b61064183838360405180602001604052806000815250610b6c565b60008051602061282883398151915261074d816111b5565b600061075883610835565b9050610763836112ac565b6001600160a01b0381166000908152600a6020526040902061078590846112ec565b50505050565b6000805160206128288339815191526107a3816111b5565b81516000036107e65760405162461bcd60e51b815260206004820152600f60248201526e626173655572695f3a20656d70747960881b60448201526064016105a0565b60086107f28382612507565b508160405161080191906125c7565b604051908190038120907fafa35f42f46f5052816d7c6a2e9406eca98294b20726677862d83b4a7418d8d590600090a25050565b6000818152600260205260408120546001600160a01b03168061046d5760405162461bcd60e51b8152602060048201526018602482015277115490cdcc8c4e881a5b9d985b1a59081d1bdad95b88125160421b60448201526064016105a0565b606060008267ffffffffffffffff8111156108b2576108b2611fca565b6040519080825280602002602001820160405280156108db578160200160208202803683370190505b50905060005b83811015610939576109146108f686836125f9565b6001600160a01b0388166000908152600a60205260409020906112ff565b8282815181106109265761092661260c565b60209081029190910101526001016108e1565b50949350505050565b60006001600160a01b0382166109ac5760405162461bcd60e51b815260206004820152602960248201527f4552433732313a2061646472657373207a65726f206973206e6f7420612076616044820152683634b21037bbb732b960b91b60648201526084016105a0565b506001600160a01b031660009081526003602052604090205490565b60009182526007602090815260408084206001600160a01b0393909316845291905290205460ff1690565b60606001805461048290612432565b61071633838361130b565b606060008267ffffffffffffffff811115610a2a57610a2a611fca565b604051908082528060200260200182016040528015610a7757816020015b60408051606080820183526000808352602083015291810191909152815260200190600190039081610a485790505b50905060005b83811015610b64576000610aaf610a9487846125f9565b6000908152600260205260409020546001600160a01b031690565b90506001600160a01b03811615610aff5760405180606001604052808784610ad791906125f9565b81526001600160a01b0383166020820152604001610af86103c489866125f9565b9052610b3e565b60405180606001604052808784610b1691906125f9565b8152602001826001600160a01b03168152602001604051806020016040528060008152508152505b838381518110610b5057610b5061260c565b602090810291909101015250600101610a7d565b509392505050565b610b763383610fc6565b610b925760405162461bcd60e51b81526004016105a09061246c565b610785848484846113d9565b6060610ba982610ef6565b60008281526006602052604081208054610bc290612432565b80601f0160208091040260200160405190810160405280929190818152602001828054610bee90612432565b8015610c3b5780601f10610c1057610100808354040283529160200191610c3b565b820191906000526020600020905b815481529060010190602001808311610c1e57829003601f168201915b505050505090506000610c4c61140c565b90508051600003610c5e575092915050565b815115610c90578082604051602001610c78929190612622565b60405160208183030381529060405292505050919050565b610c998461141b565b949350505050565b600080516020612828833981519152610cb9816111b5565b8151600003610cfd5760405162461bcd60e51b815260206004820152601060248201526f746f6b656e5552495f3a20656d70747960801b60448201526064016105a0565b6009805460009182610d0e83612651565b919050559050610d1e8482611481565b610d28818461161a565b6001600160a01b0384166000908152600a60205260409020610d4a90826116e5565b5050505050565b600082815260076020526040902060010154610d6c816111b5565b6106418383611245565b805160609060008167ffffffffffffffff811115610d9657610d96611fca565b604051908082528060200260200182016040528015610dc957816020015b6060815260200190600190039081610db45790505b50905060005b82811015610b6457610df9858281518110610dec57610dec61260c565b6020026020010151610b9e565b828281518110610e0b57610e0b61260c565b6020908102919091010152600101610dcf565b60088054610e2b90612432565b80601f0160208091040260200160405190810160405280929190818152602001828054610e5790612432565b8015610ea45780601f10610e7957610100808354040283529160200191610ea4565b820191906000526020600020905b815481529060010190602001808311610e8757829003601f168201915b505050505081565b60006001600160e01b03198216632483248360e11b148061046d575061046d826116f1565b60006001600160e01b03198216637965db0b60e01b148061046d575061046d82610eac565b6000818152600260205260409020546001600160a01b0316610f555760405162461bcd60e51b8152602060048201526018602482015277115490cdcc8c4e881a5b9d985b1a59081d1bdad95b88125160421b60448201526064016105a0565b50565b600081815260046020526040902080546001600160a01b0319166001600160a01b0384169081179091558190610f8d82610835565b6001600160a01b03167f8c5be1e5ebec7d5bd14f71427d1e84f3dd0314c0f7b2291e5b200ac8c7c3b92560405160405180910390a45050565b600080610fd283610835565b9050806001600160a01b0316846001600160a01b0316148061101957506001600160a01b0380821660009081526005602090815260408083209388168352929052205460ff165b80610c995750836001600160a01b031661103284610505565b6001600160a01b031614949350505050565b826001600160a01b031661105782610835565b6001600160a01b03161461107d5760405162461bcd60e51b81526004016105a09061266a565b6001600160a01b0382166110df5760405162461bcd60e51b8152602060048201526024808201527f4552433732313a207472616e7366657220746f20746865207a65726f206164646044820152637265737360e01b60648201526084016105a0565b6110ec8383836001611741565b826001600160a01b03166110ff82610835565b6001600160a01b0316146111255760405162461bcd60e51b81526004016105a09061266a565b600081815260046020908152604080832080546001600160a01b03199081169091556001600160a01b0387811680865260038552838620805460001901905590871680865283862080546001019055868652600290945282852080549092168417909155905184937fddf252ad1be2c89b69c2b068fc378daa952ba7f163c4a11628f55a4df523b3ef91a4505050565b610f55813361179d565b6111c982826109c8565b6107165760008281526007602090815260408083206001600160a01b03851684529091529020805460ff191660011790556112013390565b6001600160a01b0316816001600160a01b0316837f2f8788117e7eff1d82e926ec794901d17c78024a50270940304540a733656f0d60405160405180910390a45050565b61124f82826109c8565b156107165760008281526007602090815260408083206001600160a01b0385168085529252808320805460ff1916905551339285917ff6391f5c32d9c69d2a47ea670b442974b53935d1edc7fd64eb21e047a839171b9190a45050565b6112b5816117f6565b600081815260066020526040902080546112ce90612432565b159050610f55576000818152600660205260408120610f5591611e1f565b60006112f88383611899565b9392505050565b60006112f8838361198c565b816001600160a01b0316836001600160a01b03160361136c5760405162461bcd60e51b815260206004820152601960248201527f4552433732313a20617070726f766520746f2063616c6c65720000000000000060448201526064016105a0565b6001600160a01b03838116600081815260056020908152604080832094871680845294825291829020805460ff191686151590811790915591519182527f17307eab39ab6107e8899845ad3d59bd9653f200f220920489ca2b5937696c31910160405180910390a3505050565b6113e4848484611044565b6113f0848484846119b6565b6107855760405162461bcd60e51b81526004016105a0906126af565b60606008805461048290612432565b606061142682610ef6565b600061143061140c565b9050600081511161145057604051806020016040528060008152506112f8565b8061145a84611ab7565b60405160200161146b929190612622565b6040516020818303038152906040529392505050565b6001600160a01b0382166114d75760405162461bcd60e51b815260206004820181905260248201527f4552433732313a206d696e7420746f20746865207a65726f206164647265737360448201526064016105a0565b6000818152600260205260409020546001600160a01b03161561153c5760405162461bcd60e51b815260206004820152601c60248201527f4552433732313a20746f6b656e20616c7265616479206d696e7465640000000060448201526064016105a0565b61154a600083836001611741565b6000818152600260205260409020546001600160a01b0316156115af5760405162461bcd60e51b815260206004820152601c60248201527f4552433732313a20746f6b656e20616c7265616479206d696e7465640000000060448201526064016105a0565b6001600160a01b038216600081815260036020908152604080832080546001019055848352600290915280822080546001600160a01b0319168417905551839291907fddf252ad1be2c89b69c2b068fc378daa952ba7f163c4a11628f55a4df523b3ef908290a45050565b6000828152600260205260409020546001600160a01b03166116955760405162461bcd60e51b815260206004820152602e60248201527f45524337323155524953746f726167653a2055524920736574206f66206e6f6e60448201526d32bc34b9ba32b73a103a37b5b2b760911b60648201526084016105a0565b60008281526006602052604090206116ad8282612507565b506040518281527ff8e1a15aba9398e019f0b49df1a4fde98ee17ae345cb5f6b5e2c27f5033e8ce79060200160405180910390a15050565b60006112f88383611b4a565b60006001600160e01b031982166380ac58cd60e01b148061172257506001600160e01b03198216635b5e139f60e01b145b8061046d57506301ffc9a760e01b6001600160e01b031983161461046d565b6001600160a01b038416158061175e57506001600160a01b038316155b6107855760405162461bcd60e51b815260206004820152601060248201526f4e6f74207472616e7366657261626c6560801b60448201526064016105a0565b6117a782826109c8565b610716576117b481611b99565b6117bf836020611bab565b6040516020016117d0929190612701565b60408051601f198184030181529082905262461bcd60e51b82526105a091600401611ef0565b600061180182610835565b9050611811816000846001611741565b61181a82610835565b600083815260046020908152604080832080546001600160a01b03199081169091556001600160a01b0385168085526003845282852080546000190190558785526002909352818420805490911690555192935084927fddf252ad1be2c89b69c2b068fc378daa952ba7f163c4a11628f55a4df523b3ef908390a45050565b600081815260018301602052604081205480156119825760006118bd600183612776565b85549091506000906118d190600190612776565b90508181146119365760008660000182815481106118f1576118f161260c565b90600052602060002001549050808760000184815481106119145761191461260c565b6000918252602080832090910192909255918252600188019052604090208390555b855486908061194757611947612789565b60019003818190600052602060002001600090559055856001016000868152602001908152602001600020600090556001935050505061046d565b600091505061046d565b60008260000182815481106119a3576119a361260c565b9060005260206000200154905092915050565b60006001600160a01b0384163b15611aac57604051630a85bd0160e11b81526001600160a01b0385169063150b7a02906119fa90339089908890889060040161279f565b6020604051808303816000875af1925050508015611a35575060408051601f3d908101601f19168201909252611a32918101906127dc565b60015b611a92573d808015611a63576040519150601f19603f3d011682016040523d82523d6000602084013e611a68565b606091505b508051600003611a8a5760405162461bcd60e51b81526004016105a0906126af565b805181602001fd5b6001600160e01b031916630a85bd0160e11b149050610c99565b506001949350505050565b60606000611ac483611d47565b600101905060008167ffffffffffffffff811115611ae457611ae4611fca565b6040519080825280601f01601f191660200182016040528015611b0e576020820181803683370190505b5090508181016020015b600019016f181899199a1a9b1b9c1cb0b131b232b360811b600a86061a8153600a8504945084611b1857509392505050565b6000818152600183016020526040812054611b915750815460018181018455600084815260208082209093018490558454848252828601909352604090209190915561046d565b50600061046d565b606061046d6001600160a01b03831660145b60606000611bba8360026127f9565b611bc59060026125f9565b67ffffffffffffffff811115611bdd57611bdd611fca565b6040519080825280601f01601f191660200182016040528015611c07576020820181803683370190505b509050600360fc1b81600081518110611c2257611c2261260c565b60200101906001600160f81b031916908160001a905350600f60fb1b81600181518110611c5157611c5161260c565b60200101906001600160f81b031916908160001a9053506000611c758460026127f9565b611c809060016125f9565b90505b6001811115611cf8576f181899199a1a9b1b9c1cb0b131b232b360811b85600f1660108110611cb457611cb461260c565b1a60f81b828281518110611cca57611cca61260c565b60200101906001600160f81b031916908160001a90535060049490941c93611cf181612810565b9050611c83565b5083156112f85760405162461bcd60e51b815260206004820181905260248201527f537472696e67733a20686578206c656e67746820696e73756666696369656e7460448201526064016105a0565b60008072184f03e93ff9f4daa797ed6e38ed64bf6a1f0160401b8310611d865772184f03e93ff9f4daa797ed6e38ed64bf6a1f0160401b830492506040015b6d04ee2d6d415b85acef81000000008310611db2576d04ee2d6d415b85acef8100000000830492506020015b662386f26fc100008310611dd057662386f26fc10000830492506010015b6305f5e1008310611de8576305f5e100830492506008015b6127108310611dfc57612710830492506004015b60648310611e0e576064830492506002015b600a831061046d5760010192915050565b508054611e2b90612432565b6000825580601f10611e3b575050565b601f016020900490600052602060002090810190610f5591905b80821115611e695760008155600101611e55565b5090565b6001600160e01b031981168114610f5557600080fd5b600060208284031215611e9557600080fd5b81356112f881611e6d565b60005b83811015611ebb578181015183820152602001611ea3565b50506000910152565b60008151808452611edc816020860160208601611ea0565b601f01601f19169290920160200192915050565b6020815260006112f86020830184611ec4565b600060208284031215611f1557600080fd5b5035919050565b80356001600160a01b0381168114611f3357600080fd5b919050565b60008060408385031215611f4b57600080fd5b611f5483611f1c565b946020939093013593505050565b600080600060608486031215611f7757600080fd5b611f8084611f1c565b9250611f8e60208501611f1c565b9150604084013590509250925092565b60008060408385031215611fb157600080fd5b82359150611fc160208401611f1c565b90509250929050565b634e487b7160e01b600052604160045260246000fd5b604051601f8201601f1916810167ffffffffffffffff8111828210171561200957612009611fca565b604052919050565b600067ffffffffffffffff83111561202b5761202b611fca565b61203e601f8401601f1916602001611fe0565b905082815283838301111561205257600080fd5b828260208301376000602084830101529392505050565b600082601f83011261207a57600080fd5b6112f883833560208501612011565b60006020828403121561209b57600080fd5b813567ffffffffffffffff8111156120b257600080fd5b610c9984828501612069565b6000806000606084860312156120d357600080fd5b6120dc84611f1c565b95602085013595506040909401359392505050565b6020808252825182820181905260009190848201906040850190845b818110156121295783518352928401929184019160010161210d565b50909695505050505050565b60006020828403121561214757600080fd5b6112f882611f1c565b6000806040838503121561216357600080fd5b61216c83611f1c565b91506020830135801515811461218157600080fd5b809150509250929050565b6000806040838503121561219f57600080fd5b50508035926020909101359150565b60006020808301818452808551808352604092508286019150828160051b87010184880160005b8381101561222857888303603f19018552815180518452878101516001600160a01b031688850152860151606087850181905261221481860183611ec4565b9689019694505050908601906001016121d5565b509098975050505050505050565b6000806000806080858703121561224c57600080fd5b61225585611f1c565b935061226360208601611f1c565b925060408501359150606085013567ffffffffffffffff81111561228657600080fd5b8501601f8101871361229757600080fd5b6122a687823560208401612011565b91505092959194509250565b600080604083850312156122c557600080fd5b6122ce83611f1c565b9150602083013567ffffffffffffffff8111156122ea57600080fd5b6122f685828601612069565b9150509250929050565b6000602080838503121561231357600080fd5b823567ffffffffffffffff8082111561232b57600080fd5b818501915085601f83011261233f57600080fd5b81358181111561235157612351611fca565b8060051b9150612362848301611fe0565b818152918301840191848101908884111561237c57600080fd5b938501935b8385101561239a57843582529385019390850190612381565b98975050505050505050565b6000602080830181845280855180835260408601915060408160051b870101925083870160005b828110156123fb57603f198886030184526123e9858351611ec4565b945092850192908501906001016123cd565b5092979650505050505050565b6000806040838503121561241b57600080fd5b61242483611f1c565b9150611fc160208401611f1c565b600181811c9082168061244657607f821691505b60208210810361246657634e487b7160e01b600052602260045260246000fd5b50919050565b6020808252602d908201527f4552433732313a2063616c6c6572206973206e6f7420746f6b656e206f776e6560408201526c1c881bdc88185c1c1c9bdd9959609a1b606082015260800190565b601f82111561064157600081815260208120601f850160051c810160208610156124e05750805b601f850160051c820191505b818110156124ff578281556001016124ec565b505050505050565b815167ffffffffffffffff81111561252157612521611fca565b6125358161252f8454612432565b846124b9565b602080601f83116001811461256a57600084156125525750858301515b600019600386901b1c1916600185901b1785556124ff565b600085815260208120601f198616915b828110156125995788860151825594840194600190910190840161257a565b50858210156125b75787850151600019600388901b60f8161c191681555b5050505050600190811b01905550565b600082516125d9818460208701611ea0565b9190910192915050565b634e487b7160e01b600052601160045260246000fd5b8082018082111561046d5761046d6125e3565b634e487b7160e01b600052603260045260246000fd5b60008351612634818460208801611ea0565b835190830190612648818360208801611ea0565b01949350505050565b600060018201612663576126636125e3565b5060010190565b60208082526025908201527f4552433732313a207472616e736665722066726f6d20696e636f72726563742060408201526437bbb732b960d91b606082015260800190565b60208082526032908201527f4552433732313a207472616e7366657220746f206e6f6e20455243373231526560408201527131b2b4bb32b91034b6b83632b6b2b73a32b960711b606082015260800190565b7f416363657373436f6e74726f6c3a206163636f756e7420000000000000000000815260008351612739816017850160208801611ea0565b7001034b99036b4b9b9b4b733903937b6329607d1b601791840191820152835161276a816028840160208801611ea0565b01602801949350505050565b8181038181111561046d5761046d6125e3565b634e487b7160e01b600052603160045260246000fd5b6001600160a01b03858116825284166020820152604081018390526080606082018190526000906127d290830184611ec4565b9695505050505050565b6000602082840312156127ee57600080fd5b81516112f881611e6d565b808202811582820484141761046d5761046d6125e3565b60008161281f5761281f6125e3565b50600019019056fea49807205ce4d355092ef5a8a18f56e8913cf4a201fbe287825b095693c21775a2646970667358221220f68543ebeb889ac29eccafe40355b471d664f43cb68b83cba34d8f83b2a0811b64736f6c63430008120033",
  "devdoc": {
    "author": "Крипто$лоня₽ы team",
    "events": {
      "Approval(address,address,uint256)": {
        "details": "Emitted when `owner` enables `approved` to manage the `tokenId` token."
      },
      "ApprovalForAll(address,address,bool)": {
        "details": "Emitted when `owner` enables or disables (`approved`) `operator` to manage all of its assets."
      },
      "BatchMetadataUpdate(uint256,uint256)": {
        "details": "This event emits when the metadata of a range of tokens is changed. So that the third-party platforms such as NFT market could timely update the images and related attributes of the NFTs."
      },
      "MetadataUpdate(uint256)": {
        "details": "This event emits when the metadata of a token is changed. So that the third-party platforms such as NFT market could timely update the images and related attributes of the NFT."
      },
      "RoleAdminChanged(bytes32,bytes32,bytes32)": {
        "details": "Emitted when `newAdminRole` is set as ``role``'s admin role, replacing `previousAdminRole` `DEFAULT_ADMIN_ROLE` is the starting admin for all roles, despite {RoleAdminChanged} not being emitted signaling this. _Available since v3.1._"
      },
      "RoleGranted(bytes32,address,address)": {
        "details": "Emitted when `account` is granted `role`. `sender` is the account that originated the contract call, an admin role bearer except when using {AccessControl-_setupRole}."
      },
      "RoleRevoked(bytes32,address,address)": {
        "details": "Emitted when `account` is revoked `role`. `sender` is the account that originated the contract call:   - if using `revokeRole`, it is the admin role bearer   - if using `renounceRole`, it is the role bearer (i.e. `account`)"
      },
      "Transfer(address,address,uint256)": {
        "details": "Emitted when `tokenId` token is transferred from `from` to `to`."
      }
    },
    "kind": "dev",
    "methods": {
      "approve(address,uint256)": {
        "details": "See {IERC721-approve}."
      },
      "balanceOf(address)": {
        "details": "See {IERC721-balanceOf}."
      },
      "burn(uint256)": {
        "params": {
          "tokenId_": "NFT ID"
        }
      },
      "changeBaseUri(string)": {
        "params": {
          "baseUri_": "New base URI"
        }
      },
      "constructor": {
        "params": {
          "baseURI_": "Base URI for all NFT IDs",
          "name_": "Collection name",
          "symbol_": "Collection symbol"
        }
      },
      "getAllURIsInfo(uint256,uint256)": {
        "params": {
          "limit": "Return size limit",
          "offset": "Offset to start with"
        }
      },
      "getApproved(uint256)": {
        "details": "See {IERC721-getApproved}."
      },
      "getIdsSliceByHolder(address,uint256,uint256)": {
        "details": "Offset-limit is necessary for the guaranteed return of a large array",
        "params": {
          "holder": "User address",
          "limit": "Return size limit",
          "offset": "Offset to start with"
        }
      },
      "getRoleAdmin(bytes32)": {
        "details": "Returns the admin role that controls `role`. See {grantRole} and {revokeRole}. To change a role's admin, use {_setRoleAdmin}."
      },
      "getURIs(uint256[])": {
        "params": {
          "ids": "NFT IDs"
        }
      },
      "grantRole(bytes32,address)": {
        "details": "Grants `role` to `account`. If `account` had not been already granted `role`, emits a {RoleGranted} event. Requirements: - the caller must have ``role``'s admin role. May emit a {RoleGranted} event."
      },
      "hasRole(bytes32,address)": {
        "details": "Returns `true` if `account` has been granted `role`."
      },
      "isApprovedForAll(address,address)": {
        "details": "See {IERC721-isApprovedForAll}."
      },
      "mint(address,string)": {
        "params": {
          "to_": "Owner of the newly created NFT",
          "tokenURI_": "NFT URI"
        }
      },
      "name()": {
        "details": "See {IERC721Metadata-name}."
      },
      "ownerOf(uint256)": {
        "details": "See {IERC721-ownerOf}."
      },
      "renounceRole(bytes32,address)": {
        "details": "Revokes `role` from the calling account. Roles are often managed via {grantRole} and {revokeRole}: this function's purpose is to provide a mechanism for accounts to lose their privileges if they are compromised (such as when a trusted device is misplaced). If the calling account had been revoked `role`, emits a {RoleRevoked} event. Requirements: - the caller must be `account`. May emit a {RoleRevoked} event."
      },
      "revokeRole(bytes32,address)": {
        "details": "Revokes `role` from `account`. If `account` had been granted `role`, emits a {RoleRevoked} event. Requirements: - the caller must have ``role``'s admin role. May emit a {RoleRevoked} event."
      },
      "safeTransferFrom(address,address,uint256)": {
        "details": "See {IERC721-safeTransferFrom}."
      },
      "safeTransferFrom(address,address,uint256,bytes)": {
        "details": "See {IERC721-safeTransferFrom}."
      },
      "setApprovalForAll(address,bool)": {
        "details": "See {IERC721-setApprovalForAll}."
      },
      "supportsInterface(bytes4)": {
        "details": "See {IERC165-supportsInterface}."
      },
      "symbol()": {
        "details": "See {IERC721Metadata-symbol}."
      },
      "tokenURI(uint256)": {
        "details": "See {IERC721Metadata-tokenURI}."
      },
      "transferFrom(address,address,uint256)": {
        "details": "See {IERC721-transferFrom}."
      }
    },
    "title": "NFT contract for Digital Profiles",
    "version": 1
  },
  "userdoc": {
    "kind": "user",
    "methods": {
      "burn(uint256)": {
        "notice": "Deletes NFT"
      },
      "changeBaseUri(string)": {
        "notice": "Emergency function to change base URI"
      },
      "getAllURIsInfo(uint256,uint256)": {
        "notice": "Helper function to get all NFTs info"
      },
      "getIdsSliceByHolder(address,uint256,uint256)": {
        "notice": "Helper function to get slice of user NFT IDs"
      },
      "getURIs(uint256[])": {
        "notice": "Helper function to get list of metadata per call"
      },
      "mint(address,string)": {
        "notice": "Creates a new NFT"
      }
    },
    "notice": "Allows to mint/burn NFT for ADMIN_ROLE, metadata is immutable and can't be changed after mint.",
    "version": 1
  },
  "storageLayout": {
    "storage": [
      {
        "astId": 442,
        "contract": "contracts/NFT.sol:NFT",
        "label": "_name",
        "offset": 0,
        "slot": "0",
        "type": "t_string_storage"
      },
      {
        "astId": 444,
        "contract": "contracts/NFT.sol:NFT",
        "label": "_symbol",
        "offset": 0,
        "slot": "1",
        "type": "t_string_storage"
      },
      {
        "astId": 448,
        "contract": "contracts/NFT.sol:NFT",
        "label": "_owners",
        "offset": 0,
        "slot": "2",
        "type": "t_mapping(t_uint256,t_address)"
      },
      {
        "astId": 452,
        "contract": "contracts/NFT.sol:NFT",
        "label": "_balances",
        "offset": 0,
        "slot": "3",
        "type": "t_mapping(t_address,t_uint256)"
      },
      {
        "astId": 456,
        "contract": "contracts/NFT.sol:NFT",
        "label": "_tokenApprovals",
        "offset": 0,
        "slot": "4",
        "type": "t_mapping(t_uint256,t_address)"
      },
      {
        "astId": 462,
        "contract": "contracts/NFT.sol:NFT",
        "label": "_operatorApprovals",
        "offset": 0,
        "slot": "5",
        "type": "t_mapping(t_address,t_mapping(t_address,t_bool))"
      },
      {
        "astId": 1493,
        "contract": "contracts/NFT.sol:NFT",
        "label": "_tokenURIs",
        "offset": 0,
        "slot": "6",
        "type": "t_mapping(t_uint256,t_string_storage)"
      },
      {
        "astId": 24,
        "contract": "contracts/NFT.sol:NFT",
        "label": "_roles",
        "offset": 0,
        "slot": "7",
        "type": "t_mapping(t_bytes32,t_struct(RoleData)19_storage)"
      },
      {
        "astId": 3901,
        "contract": "contracts/NFT.sol:NFT",
        "label": "BASE_URI",
        "offset": 0,
        "slot": "8",
        "type": "t_string_storage"
      },
      {
        "astId": 3903,
        "contract": "contracts/NFT.sol:NFT",
        "label": "counter",
        "offset": 0,
        "slot": "9",
        "type": "t_uint256"
      },
      {
        "astId": 3908,
        "contract": "contracts/NFT.sol:NFT",
        "label": "_idsPerHolder",
        "offset": 0,
        "slot": "10",
        "type": "t_mapping(t_address,t_struct(UintSet)3739_storage)"
      }
    ],
    "types": {
      "t_address": {
        "encoding": "inplace",
        "label": "address",
        "numberOfBytes": "20"
      },
      "t_array(t_bytes32)dyn_storage": {
        "base": "t_bytes32",
        "encoding": "dynamic_array",
        "label": "bytes32[]",
        "numberOfBytes": "32"
      },
      "t_bool": {
        "encoding": "inplace",
        "label": "bool",
        "numberOfBytes": "1"
      },
      "t_bytes32": {
        "encoding": "inplace",
        "label": "bytes32",
        "numberOfBytes": "32"
      },
      "t_mapping(t_address,t_bool)": {
        "encoding": "mapping",
        "key": "t_address",
        "label": "mapping(address => bool)",
        "numberOfBytes": "32",
        "value": "t_bool"
      },
      "t_mapping(t_address,t_mapping(t_address,t_bool))": {
        "encoding": "mapping",
        "key": "t_address",
        "label": "mapping(address => mapping(address => bool))",
        "numberOfBytes": "32",
        "value": "t_mapping(t_address,t_bool)"
      },
      "t_mapping(t_address,t_struct(UintSet)3739_storage)": {
        "encoding": "mapping",
        "key": "t_address",
        "label": "mapping(address => struct EnumerableSet.UintSet)",
        "numberOfBytes": "32",
        "value": "t_struct(UintSet)3739_storage"
      },
      "t_mapping(t_address,t_uint256)": {
        "encoding": "mapping",
        "key": "t_address",
        "label": "mapping(address => uint256)",
        "numberOfBytes": "32",
        "value": "t_uint256"
      },
      "t_mapping(t_bytes32,t_struct(RoleData)19_storage)": {
        "encoding": "mapping",
        "key": "t_bytes32",
        "label": "mapping(bytes32 => struct AccessControl.RoleData)",
        "numberOfBytes": "32",
        "value": "t_struct(RoleData)19_storage"
      },
      "t_mapping(t_bytes32,t_uint256)": {
        "encoding": "mapping",
        "key": "t_bytes32",
        "label": "mapping(bytes32 => uint256)",
        "numberOfBytes": "32",
        "value": "t_uint256"
      },
      "t_mapping(t_uint256,t_address)": {
        "encoding": "mapping",
        "key": "t_uint256",
        "label": "mapping(uint256 => address)",
        "numberOfBytes": "32",
        "value": "t_address"
      },
      "t_mapping(t_uint256,t_string_storage)": {
        "encoding": "mapping",
        "key": "t_uint256",
        "label": "mapping(uint256 => string)",
        "numberOfBytes": "32",
        "value": "t_string_storage"
      },
      "t_string_storage": {
        "encoding": "bytes",
        "label": "string",
        "numberOfBytes": "32"
      },
      "t_struct(RoleData)19_storage": {
        "encoding": "inplace",
        "label": "struct AccessControl.RoleData",
        "members": [
          {
            "astId": 16,
            "contract": "contracts/NFT.sol:NFT",
            "label": "members",
            "offset": 0,
            "slot": "0",
            "type": "t_mapping(t_address,t_bool)"
          },
          {
            "astId": 18,
            "contract": "contracts/NFT.sol:NFT",
            "label": "adminRole",
            "offset": 0,
            "slot": "1",
            "type": "t_bytes32"
          }
        ],
        "numberOfBytes": "64"
      },
      "t_struct(Set)3267_storage": {
        "encoding": "inplace",
        "label": "struct EnumerableSet.Set",
        "members": [
          {
            "astId": 3262,
            "contract": "contracts/NFT.sol:NFT",
            "label": "_values",
            "offset": 0,
            "slot": "0",
            "type": "t_array(t_bytes32)dyn_storage"
          },
          {
            "astId": 3266,
            "contract": "contracts/NFT.sol:NFT",
            "label": "_indexes",
            "offset": 0,
            "slot": "1",
            "type": "t_mapping(t_bytes32,t_uint256)"
          }
        ],
        "numberOfBytes": "64"
      },
      "t_struct(UintSet)3739_storage": {
        "encoding": "inplace",
        "label": "struct EnumerableSet.UintSet",
        "members": [
          {
            "astId": 3738,
            "contract": "contracts/NFT.sol:NFT",
            "label": "_inner",
            "offset": 0,
            "slot": "0",
            "type": "t_struct(Set)3267_storage"
          }
        ],
        "numberOfBytes": "64"
      },
      "t_uint256": {
        "encoding": "inplace",
        "label": "uint256",
        "numberOfBytes": "32"
      }
    }
  }
}